08:54:18.515592 IP 10.0.2.25.2000 > 10.0.2.2.26099: UDP, length 19
	0x0000:  ffff ffff ffff 5254 0012 3456 0800 4500  ......RT..4V..E.
	0x0010:  002f 0000 0000 6411 3ea4 0a00 0219 0a00  ./....d.>.......
	0x0020:  0202 07d0 65f3 001b 0000 6120 6d65 7373  ....e.....a.mess
	0x0030:  6167 6520 6672 6f6d 2078 7636 21         age.from.xv6!
08:54:18.601884 ARP, Request who-has 10.0.2.25 tell 10.0.2.2, length 46
	0x0000:  ffff ffff ffff 5255 0a00 0202 0806 0001  ......RU........
	0x0010:  0800 0604 0001 5255 0a00 0202 0a00 0202  ......RU........
	0x0020:  0000 0000 0000 0a00 0219 0000 0000 0000  ................
	0x0030:  0000 0000 0000 0000 0000 0000            ............
08:54:18.603746 ARP, Reply 10.0.2.25 is-at 52:54:00:12:34:56, length 28
	0x0000:  ffff ffff ffff 5254 0012 3456 0806 0001  ......RT..4V....
	0x0010:  0800 0604 0002 5254 0012 3456 0a00 0219  ......RT..4V....
	0x0020:  5255 0a00 0202 0a00 0202                 RU........
08:54:18.604755 IP 10.0.2.2.26099 > 10.0.2.25.2000: UDP, length 17
	0x0000:  5254 0012 3456 5255 0a00 0202 0800 4500  RT..4VRU......E.
	0x0010:  002d 0000 0000 4011 62a6 0a00 0202 0a00  .-....@.b.......
	0x0020:  0219 65f3 07d0 0019 320c 7468 6973 2069  ..e.....2.this.i
	0x0030:  7320 7468 6520 686f 7374 2100            s.the.host!.
08:54:18.688933 IP 10.0.2.25.2000 > 10.0.2.2.26099: UDP, length 19
	0x0000:  ffff ffff ffff 5254 0012 3456 0800 4500  ......RT..4V..E.
	0x0010:  002f 0000 0000 6411 3ea4 0a00 0219 0a00  ./....d.>.......
	0x0020:  0202 07d0 65f3 001b 0000 6120 6d65 7373  ....e.....a.mess
	0x0030:  6167 6520 6672 6f6d 2078 7636 21         age.from.xv6!
08:54:18.689900 IP 10.0.2.2.26099 > 10.0.2.25.2000: UDP, length 17
	0x0000:  5254 0012 3456 5255 0a00 0202 0800 4500  RT..4VRU......E.
	0x0010:  002d 0001 0000 4011 62a5 0a00 0202 0a00  .-....@.b.......
	0x0020:  0219 65f3 07d0 0019 320c 7468 6973 2069  ..e.....2.this.i
	0x0030:  7320 7468 6520 686f 7374 2100            s.the.host!.
08:54:18.693478 IP 10.0.2.25.2000 > 10.0.2.2.26099: UDP, length 19
	0x0000:  ffff ffff ffff 5254 0012 3456 0800 4500  ......RT..4V..E.
	0x0010:  002f 0000 0000 6411 3ea4 0a00 0219 0a00  ./....d.>.......
	0x0020:  0202 07d0 65f3 001b 0000 6120 6d65 7373  ....e.....a.mess
	0x0030:  6167 6520 6672 6f6d 2078 7636 21         age.from.xv6!
08:54:18.695059 IP 10.0.2.2.26099 > 10.0.2.25.2000: UDP, length 17
	0x0000:  5254 0012 3456 5255 0a00 0202 0800 4500  RT..4VRU......E.
	0x0010:  002d 0002 0000 4011 62a4 0a00 0202 0a00  .-....@.b.......
	0x0020:  0219 65f3 07d0 0019 320c 7468 6973 2069  ..e.....2.this.i
	0x0030:  7320 7468 6520 686f 7374 2100            s.the.host!.
08:54:18.708449 IP 10.0.2.25.2000 > 10.0.2.2.26099: UDP, length 19
	0x0000:  ffff ffff ffff 5254 0012 3456 0800 4500  ......RT..4V..E.
	0x0010:  002f 0000 0000 6411 3ea4 0a00 0219 0a00  ./....d.>.......
	0x0020:  0202 07d0 65f3 001b 0000 6120 6d65 7373  ....e.....a.mess
	0x0030:  6167 6520 6672 6f6d 2078 7636 21         age.from.xv6!
08:54:18.708891 IP 10.0.2.2.26099 > 10.0.2.25.2000: UDP, length 17
	0x0000:  5254 0012 3456 5255 0a00 0202 0800 4500  RT..4VRU......E.
	0x0010:  002d 0003 0000 4011 62a3 0a00 0202 0a00  .-....@.b.......
	0x0020:  0219 65f3 07d0 0019 320c 7468 6973 2069  ..e.....2.this.i
	0x0030:  7320 7468 6520 686f 7374 2100            s.the.host!.
08:54:18.721058 IP 10.0.2.25.2000 > 10.0.2.2.26099: UDP, length 19
	0x0000:  ffff ffff ffff 5254 0012 3456 0800 4500  ......RT..4V..E.
	0x0010:  002f 0000 0000 6411 3ea4 0a00 0219 0a00  ./....d.>.......
	0x0020:  0202 07d0 65f3 001b 0000 6120 6d65 7373  ....e.....a.mess
	0x0030:  6167 6520 6672 6f6d 2078 7636 21         age.from.xv6!
08:54:18.721685 IP 10.0.2.2.26099 > 10.0.2.25.2000: UDP, length 17
	0x0000:  5254 0012 3456 5255 0a00 0202 0800 4500  RT..4VRU......E.
	0x0010:  002d 0004 0000 4011 62a2 0a00 0202 0a00  .-....@.b.......
	0x0020:  0219 65f3 07d0 0019 320c 7468 6973 2069  ..e.....2.this.i
	0x0030:  7320 7468 6520 686f 7374 2100            s.the.host!.
08:54:18.725265 IP 10.0.2.25.2000 > 10.0.2.2.26099: UDP, length 19
	0x0000:  ffff ffff ffff 5254 0012 3456 0800 4500  ......RT..4V..E.
	0x0010:  002f 0000 0000 6411 3ea4 0a00 0219 0a00  ./....d.>.......
	0x0020:  0202 07d0 65f3 001b 0000 6120 6d65 7373  ....e.....a.mess
	0x0030:  6167 6520 6672 6f6d 2078 7636 21         age.from.xv6!
08:54:18.729806 IP 10.0.2.2.26099 > 10.0.2.25.2000: UDP, length 17
	0x0000:  5254 0012 3456 5255 0a00 0202 0800 4500  RT..4VRU......E.
	0x0010:  002d 0005 0000 4011 62a1 0a00 0202 0a00  .-....@.b.......
	0x0020:  0219 65f3 07d0 0019 320c 7468 6973 2069  ..e.....2.this.i
	0x0030:  7320 7468 6520 686f 7374 2100            s.the.host!.
08:54:18.732490 IP 10.0.2.25.2000 > 10.0.2.2.26099: UDP, length 19
	0x0000:  ffff ffff ffff 5254 0012 3456 0800 4500  ......RT..4V..E.
	0x0010:  002f 0000 0000 6411 3ea4 0a00 0219 0a00  ./....d.>.......
	0x0020:  0202 07d0 65f3 001b 0000 6120 6d65 7373  ....e.....a.mess
	0x0030:  6167 6520 6672 6f6d 2078 7636 21         age.from.xv6!
08:54:18.732935 IP 10.0.2.2.26099 > 10.0.2.25.2000: UDP, length 17
	0x0000:  5254 0012 3456 5255 0a00 0202 0800 4500  RT..4VRU......E.
	0x0010:  002d 0006 0000 4011 62a0 0a00 0202 0a00  .-....@.b.......
	0x0020:  0219 65f3 07d0 0019 320c 7468 6973 2069  ..e.....2.this.i
	0x0030:  7320 7468 6520 686f 7374 2100            s.the.host!.
08:54:18.736026 IP 10.0.2.25.2000 > 10.0.2.2.26099: UDP, length 19
	0x0000:  ffff ffff ffff 5254 0012 3456 0800 4500  ......RT..4V..E.
	0x0010:  002f 0000 0000 6411 3ea4 0a00 0219 0a00  ./....d.>.......
	0x0020:  0202 07d0 65f3 001b 0000 6120 6d65 7373  ....e.....a.mess
	0x0030:  6167 6520 6672 6f6d 2078 7636 21         age.from.xv6!
08:54:18.737323 IP 10.0.2.2.26099 > 10.0.2.25.2000: UDP, length 17
	0x0000:  5254 0012 3456 5255 0a00 0202 0800 4500  RT..4VRU......E.
	0x0010:  002d 0007 0000 4011 629f 0a00 0202 0a00  .-....@.b.......
	0x0020:  0219 65f3 07d0 0019 320c 7468 6973 2069  ..e.....2.this.i
	0x0030:  7320 7468 6520 686f 7374 2100            s.the.host!.
08:54:18.768223 IP 10.0.2.25.2000 > 10.0.2.2.26099: UDP, length 19
	0x0000:  ffff ffff ffff 5254 0012 3456 0800 4500  ......RT..4V..E.
	0x0010:  002f 0000 0000 6411 3ea4 0a00 0219 0a00  ./....d.>.......
	0x0020:  0202 07d0 65f3 001b 0000 6120 6d65 7373  ....e.....a.mess
	0x0030:  6167 6520 6672 6f6d 2078 7636 21         age.from.xv6!
08:54:18.768691 IP 10.0.2.2.26099 > 10.0.2.25.2000: UDP, length 17
	0x0000:  5254 0012 3456 5255 0a00 0202 0800 4500  RT..4VRU......E.
	0x0010:  002d 0008 0000 4011 629e 0a00 0202 0a00  .-....@.b.......
	0x0020:  0219 65f3 07d0 0019 320c 7468 6973 2069  ..e.....2.this.i
	0x0030:  7320 7468 6520 686f 7374 2100            s.the.host!.
08:54:18.772149 IP 10.0.2.25.2000 > 10.0.2.2.26099: UDP, length 19
	0x0000:  ffff ffff ffff 5254 0012 3456 0800 4500  ......RT..4V..E.
	0x0010:  002f 0000 0000 6411 3ea4 0a00 0219 0a00  ./....d.>.......
	0x0020:  0202 07d0 65f3 001b 0000 6120 6d65 7373  ....e.....a.mess
	0x0030:  6167 6520 6672 6f6d 2078 7636 21         age.from.xv6!
08:54:18.773624 IP 10.0.2.2.26099 > 10.0.2.25.2000: UDP, length 17
	0x0000:  5254 0012 3456 5255 0a00 0202 0800 4500  RT..4VRU......E.
	0x0010:  002d 0009 0000 4011 629d 0a00 0202 0a00  .-....@.b.......
	0x0020:  0219 65f3 07d0 0019 320c 7468 6973 2069  ..e.....2.this.i
	0x0030:  7320 7468 6520 686f 7374 2100            s.the.host!.
08:54:18.775971 IP 10.0.2.25.2000 > 10.0.2.2.26099: UDP, length 19
	0x0000:  ffff ffff ffff 5254 0012 3456 0800 4500  ......RT..4V..E.
	0x0010:  002f 0000 0000 6411 3ea4 0a00 0219 0a00  ./....d.>.......
	0x0020:  0202 07d0 65f3 001b 0000 6120 6d65 7373  ....e.....a.mess
	0x0030:  6167 6520 6672 6f6d 2078 7636 21         age.from.xv6!
08:54:18.784851 IP 10.0.2.2.26099 > 10.0.2.25.2000: UDP, length 17
	0x0000:  5254 0012 3456 5255 0a00 0202 0800 4500  RT..4VRU......E.
	0x0010:  002d 000a 0000 4011 629c 0a00 0202 0a00  .-....@.b.......
	0x0020:  0219 65f3 07d0 0019 320c 7468 6973 2069  ..e.....2.this.i
	0x0030:  7320 7468 6520 686f 7374 2100            s.the.host!.
08:54:18.787248 IP 10.0.2.25.2000 > 10.0.2.2.26099: UDP, length 19
	0x0000:  ffff ffff ffff 5254 0012 3456 0800 4500  ......RT..4V..E.
	0x0010:  002f 0000 0000 6411 3ea4 0a00 0219 0a00  ./....d.>.......
	0x0020:  0202 07d0 65f3 001b 0000 6120 6d65 7373  ....e.....a.mess
	0x0030:  6167 6520 6672 6f6d 2078 7636 21         age.from.xv6!
08:54:18.787653 IP 10.0.2.2.26099 > 10.0.2.25.2000: UDP, length 17
	0x0000:  5254 0012 3456 5255 0a00 0202 0800 4500  RT..4VRU......E.
	0x0010:  002d 000b 0000 4011 629b 0a00 0202 0a00  .-....@.b.......
	0x0020:  0219 65f3 07d0 0019 320c 7468 6973 2069  ..e.....2.this.i
	0x0030:  7320 7468 6520 686f 7374 2100            s.the.host!.
08:54:18.790529 IP 10.0.2.25.2000 > 10.0.2.2.26099: UDP, length 19
	0x0000:  ffff ffff ffff 5254 0012 3456 0800 4500  ......RT..4V..E.
	0x0010:  002f 0000 0000 6411 3ea4 0a00 0219 0a00  ./....d.>.......
	0x0020:  0202 07d0 65f3 001b 0000 6120 6d65 7373  ....e.....a.mess
	0x0030:  6167 6520 6672 6f6d 2078 7636 21         age.from.xv6!
08:54:18.791685 IP 10.0.2.2.26099 > 10.0.2.25.2000: UDP, length 17
	0x0000:  5254 0012 3456 5255 0a00 0202 0800 4500  RT..4VRU......E.
	0x0010:  002d 000c 0000 4011 629a 0a00 0202 0a00  .-....@.b.......
	0x0020:  0219 65f3 07d0 0019 320c 7468 6973 2069  ..e.....2.this.i
	0x0030:  7320 7468 6520 686f 7374 2100            s.the.host!.
08:54:18.795493 IP 10.0.2.25.2000 > 10.0.2.2.26099: UDP, length 19
	0x0000:  ffff ffff ffff 5254 0012 3456 0800 4500  ......RT..4V..E.
	0x0010:  002f 0000 0000 6411 3ea4 0a00 0219 0a00  ./....d.>.......
	0x0020:  0202 07d0 65f3 001b 0000 6120 6d65 7373  ....e.....a.mess
	0x0030:  6167 6520 6672 6f6d 2078 7636 21         age.from.xv6!
08:54:18.796191 IP 10.0.2.2.26099 > 10.0.2.25.2000: UDP, length 17
	0x0000:  5254 0012 3456 5255 0a00 0202 0800 4500  RT..4VRU......E.
	0x0010:  002d 000d 0000 4011 6299 0a00 0202 0a00  .-....@.b.......
	0x0020:  0219 65f3 07d0 0019 320c 7468 6973 2069  ..e.....2.this.i
	0x0030:  7320 7468 6520 686f 7374 2100            s.the.host!.
08:54:18.807016 IP 10.0.2.25.2000 > 10.0.2.2.26099: UDP, length 19
	0x0000:  ffff ffff ffff 5254 0012 3456 0800 4500  ......RT..4V..E.
	0x0010:  002f 0000 0000 6411 3ea4 0a00 0219 0a00  ./....d.>.......
	0x0020:  0202 07d0 65f3 001b 0000 6120 6d65 7373  ....e.....a.mess
	0x0030:  6167 6520 6672 6f6d 2078 7636 21         age.from.xv6!
08:54:18.808291 IP 10.0.2.2.26099 > 10.0.2.25.2000: UDP, length 17
	0x0000:  5254 0012 3456 5255 0a00 0202 0800 4500  RT..4VRU......E.
	0x0010:  002d 000e 0000 4011 6298 0a00 0202 0a00  .-....@.b.......
	0x0020:  0219 65f3 07d0 0019 320c 7468 6973 2069  ..e.....2.this.i
	0x0030:  7320 7468 6520 686f 7374 2100            s.the.host!.
08:54:18.815052 IP 10.0.2.25.2000 > 10.0.2.2.26099: UDP, length 19
	0x0000:  ffff ffff ffff 5254 0012 3456 0800 4500  ......RT..4V..E.
	0x0010:  002f 0000 0000 6411 3ea4 0a00 0219 0a00  ./....d.>.......
	0x0020:  0202 07d0 65f3 001b 0000 6120 6d65 7373  ....e.....a.mess
	0x0030:  6167 6520 6672 6f6d 2078 7636 21         age.from.xv6!
08:54:18.815784 IP 10.0.2.2.26099 > 10.0.2.25.2000: UDP, length 17
	0x0000:  5254 0012 3456 5255 0a00 0202 0800 4500  RT..4VRU......E.
	0x0010:  002d 000f 0000 4011 6297 0a00 0202 0a00  .-....@.b.......
	0x0020:  0219 65f3 07d0 0019 320c 7468 6973 2069  ..e.....2.this.i
	0x0030:  7320 7468 6520 686f 7374 2100            s.the.host!.
08:54:18.823077 IP 10.0.2.25.2000 > 10.0.2.2.26099: UDP, length 19
	0x0000:  ffff ffff ffff 5254 0012 3456 0800 4500  ......RT..4V..E.
	0x0010:  002f 0000 0000 6411 3ea4 0a00 0219 0a00  ./....d.>.......
	0x0020:  0202 07d0 65f3 001b 0000 6120 6d65 7373  ....e.....a.mess
	0x0030:  6167 6520 6672 6f6d 2078 7636 21         age.from.xv6!
08:54:18.825314 IP 10.0.2.2.26099 > 10.0.2.25.2000: UDP, length 17
	0x0000:  5254 0012 3456 5255 0a00 0202 0800 4500  RT..4VRU......E.
	0x0010:  002d 0010 0000 4011 6296 0a00 0202 0a00  .-....@.b.......
	0x0020:  0219 65f3 07d0 0019 320c 7468 6973 2069  ..e.....2.this.i
	0x0030:  7320 7468 6520 686f 7374 2100            s.the.host!.
08:54:18.843616 IP 10.0.2.25.2000 > 10.0.2.2.26099: UDP, length 19
	0x0000:  ffff ffff ffff 5254 0012 3456 0800 4500  ......RT..4V..E.
	0x0010:  002f 0000 0000 6411 3ea4 0a00 0219 0a00  ./....d.>.......
	0x0020:  0202 07d0 65f3 001b 0000 6120 6d65 7373  ....e.....a.mess
	0x0030:  6167 6520 6672 6f6d 2078 7636 21         age.from.xv6!
08:54:18.844180 IP 10.0.2.2.26099 > 10.0.2.25.2000: UDP, length 17
	0x0000:  5254 0012 3456 5255 0a00 0202 0800 4500  RT..4VRU......E.
	0x0010:  002d 0011 0000 4011 6295 0a00 0202 0a00  .-....@.b.......
	0x0020:  0219 65f3 07d0 0019 320c 7468 6973 2069  ..e.....2.this.i
	0x0030:  7320 7468 6520 686f 7374 2100            s.the.host!.
08:54:18.846737 IP 10.0.2.25.2000 > 10.0.2.2.26099: UDP, length 19
	0x0000:  ffff ffff ffff 5254 0012 3456 0800 4500  ......RT..4V..E.
	0x0010:  002f 0000 0000 6411 3ea4 0a00 0219 0a00  ./....d.>.......
	0x0020:  0202 07d0 65f3 001b 0000 6120 6d65 7373  ....e.....a.mess
	0x0030:  6167 6520 6672 6f6d 2078 7636 21         age.from.xv6!
08:54:18.847161 IP 10.0.2.2.26099 > 10.0.2.25.2000: UDP, length 17
	0x0000:  5254 0012 3456 5255 0a00 0202 0800 4500  RT..4VRU......E.
	0x0010:  002d 0012 0000 4011 6294 0a00 0202 0a00  .-....@.b.......
	0x0020:  0219 65f3 07d0 0019 320c 7468 6973 2069  ..e.....2.this.i
	0x0030:  7320 7468 6520 686f 7374 2100            s.the.host!.
08:54:18.852649 IP 10.0.2.25.2000 > 10.0.2.2.26099: UDP, length 19
	0x0000:  ffff ffff ffff 5254 0012 3456 0800 4500  ......RT..4V..E.
	0x0010:  002f 0000 0000 6411 3ea4 0a00 0219 0a00  ./....d.>.......
	0x0020:  0202 07d0 65f3 001b 0000 6120 6d65 7373  ....e.....a.mess
	0x0030:  6167 6520 6672 6f6d 2078 7636 21         age.from.xv6!
08:54:18.853086 IP 10.0.2.2.26099 > 10.0.2.25.2000: UDP, length 17
	0x0000:  5254 0012 3456 5255 0a00 0202 0800 4500  RT..4VRU......E.
	0x0010:  002d 0013 0000 4011 6293 0a00 0202 0a00  .-....@.b.......
	0x0020:  0219 65f3 07d0 0019 320c 7468 6973 2069  ..e.....2.this.i
	0x0030:  7320 7468 6520 686f 7374 2100            s.the.host!.
08:54:18.856981 IP 10.0.2.25.2000 > 10.0.2.2.26099: UDP, length 19
	0x0000:  ffff ffff ffff 5254 0012 3456 0800 4500  ......RT..4V..E.
	0x0010:  002f 0000 0000 6411 3ea4 0a00 0219 0a00  ./....d.>.......
	0x0020:  0202 07d0 65f3 001b 0000 6120 6d65 7373  ....e.....a.mess
	0x0030:  6167 6520 6672 6f6d 2078 7636 21         age.from.xv6!
08:54:18.857558 IP 10.0.2.2.26099 > 10.0.2.25.2000: UDP, length 17
	0x0000:  5254 0012 3456 5255 0a00 0202 0800 4500  RT..4VRU......E.
	0x0010:  002d 0014 0000 4011 6292 0a00 0202 0a00  .-....@.b.......
	0x0020:  0219 65f3 07d0 0019 320c 7468 6973 2069  ..e.....2.this.i
	0x0030:  7320 7468 6520 686f 7374 2100            s.the.host!.
08:54:18.860347 IP 10.0.2.25.2000 > 10.0.2.2.26099: UDP, length 19
	0x0000:  ffff ffff ffff 5254 0012 3456 0800 4500  ......RT..4V..E.
	0x0010:  002f 0000 0000 6411 3ea4 0a00 0219 0a00  ./....d.>.......
	0x0020:  0202 07d0 65f3 001b 0000 6120 6d65 7373  ....e.....a.mess
	0x0030:  6167 6520 6672 6f6d 2078 7636 21         age.from.xv6!
08:54:18.861157 IP 10.0.2.2.26099 > 10.0.2.25.2000: UDP, length 17
	0x0000:  5254 0012 3456 5255 0a00 0202 0800 4500  RT..4VRU......E.
	0x0010:  002d 0015 0000 4011 6291 0a00 0202 0a00  .-....@.b.......
	0x0020:  0219 65f3 07d0 0019 320c 7468 6973 2069  ..e.....2.this.i
	0x0030:  7320 7468 6520 686f 7374 2100            s.the.host!.
08:54:18.863479 IP 10.0.2.25.2000 > 10.0.2.2.26099: UDP, length 19
	0x0000:  ffff ffff ffff 5254 0012 3456 0800 4500  ......RT..4V..E.
	0x0010:  002f 0000 0000 6411 3ea4 0a00 0219 0a00  ./....d.>.......
	0x0020:  0202 07d0 65f3 001b 0000 6120 6d65 7373  ....e.....a.mess
	0x0030:  6167 6520 6672 6f6d 2078 7636 21         age.from.xv6!
08:54:18.866462 IP 10.0.2.2.26099 > 10.0.2.25.2000: UDP, length 17
	0x0000:  5254 0012 3456 5255 0a00 0202 0800 4500  RT..4VRU......E.
	0x0010:  002d 0016 0000 4011 6290 0a00 0202 0a00  .-....@.b.......
	0x0020:  0219 65f3 07d0 0019 320c 7468 6973 2069  ..e.....2.this.i
	0x0030:  7320 7468 6520 686f 7374 2100            s.the.host!.
08:54:18.868779 IP 10.0.2.25.2000 > 10.0.2.2.26099: UDP, length 19
	0x0000:  ffff ffff ffff 5254 0012 3456 0800 4500  ......RT..4V..E.
	0x0010:  002f 0000 0000 6411 3ea4 0a00 0219 0a00  ./....d.>.......
	0x0020:  0202 07d0 65f3 001b 0000 6120 6d65 7373  ....e.....a.mess
	0x0030:  6167 6520 6672 6f6d 2078 7636 21         age.from.xv6!
08:54:18.869611 IP 10.0.2.2.26099 > 10.0.2.25.2000: UDP, length 17
	0x0000:  5254 0012 3456 5255 0a00 0202 0800 4500  RT..4VRU......E.
	0x0010:  002d 0017 0000 4011 628f 0a00 0202 0a00  .-....@.b.......
	0x0020:  0219 65f3 07d0 0019 320c 7468 6973 2069  ..e.....2.this.i
	0x0030:  7320 7468 6520 686f 7374 2100            s.the.host!.
08:54:18.871991 IP 10.0.2.25.2000 > 10.0.2.2.26099: UDP, length 19
	0x0000:  ffff ffff ffff 5254 0012 3456 0800 4500  ......RT..4V..E.
	0x0010:  002f 0000 0000 6411 3ea4 0a00 0219 0a00  ./....d.>.......
	0x0020:  0202 07d0 65f3 001b 0000 6120 6d65 7373  ....e.....a.mess
	0x0030:  6167 6520 6672 6f6d 2078 7636 21         age.from.xv6!
08:54:18.872825 IP 10.0.2.2.26099 > 10.0.2.25.2000: UDP, length 17
	0x0000:  5254 0012 3456 5255 0a00 0202 0800 4500  RT..4VRU......E.
	0x0010:  002d 0018 0000 4011 628e 0a00 0202 0a00  .-....@.b.......
	0x0020:  0219 65f3 07d0 0019 320c 7468 6973 2069  ..e.....2.this.i
	0x0030:  7320 7468 6520 686f 7374 2100            s.the.host!.
08:54:18.875322 IP 10.0.2.25.2000 > 10.0.2.2.26099: UDP, length 19
	0x0000:  ffff ffff ffff 5254 0012 3456 0800 4500  ......RT..4V..E.
	0x0010:  002f 0000 0000 6411 3ea4 0a00 0219 0a00  ./....d.>.......
	0x0020:  0202 07d0 65f3 001b 0000 6120 6d65 7373  ....e.....a.mess
	0x0030:  6167 6520 6672 6f6d 2078 7636 21         age.from.xv6!
08:54:18.876163 IP 10.0.2.2.26099 > 10.0.2.25.2000: UDP, length 17
	0x0000:  5254 0012 3456 5255 0a00 0202 0800 4500  RT..4VRU......E.
	0x0010:  002d 0019 0000 4011 628d 0a00 0202 0a00  .-....@.b.......
	0x0020:  0219 65f3 07d0 0019 320c 7468 6973 2069  ..e.....2.this.i
	0x0030:  7320 7468 6520 686f 7374 2100            s.the.host!.
08:54:18.886104 IP 10.0.2.25.2000 > 10.0.2.2.26099: UDP, length 19
	0x0000:  ffff ffff ffff 5254 0012 3456 0800 4500  ......RT..4V..E.
	0x0010:  002f 0000 0000 6411 3ea4 0a00 0219 0a00  ./....d.>.......
	0x0020:  0202 07d0 65f3 001b 0000 6120 6d65 7373  ....e.....a.mess
	0x0030:  6167 6520 6672 6f6d 2078 7636 21         age.from.xv6!
08:54:18.887998 IP 10.0.2.2.26099 > 10.0.2.25.2000: UDP, length 17
	0x0000:  5254 0012 3456 5255 0a00 0202 0800 4500  RT..4VRU......E.
	0x0010:  002d 001a 0000 4011 628c 0a00 0202 0a00  .-....@.b.......
	0x0020:  0219 65f3 07d0 0019 320c 7468 6973 2069  ..e.....2.this.i
	0x0030:  7320 7468 6520 686f 7374 2100            s.the.host!.
08:54:18.899954 IP 10.0.2.25.2000 > 10.0.2.2.26099: UDP, length 19
	0x0000:  ffff ffff ffff 5254 0012 3456 0800 4500  ......RT..4V..E.
	0x0010:  002f 0000 0000 6411 3ea4 0a00 0219 0a00  ./....d.>.......
	0x0020:  0202 07d0 65f3 001b 0000 6120 6d65 7373  ....e.....a.mess
	0x0030:  6167 6520 6672 6f6d 2078 7636 21         age.from.xv6!
08:54:18.902407 IP 10.0.2.2.26099 > 10.0.2.25.2000: UDP, length 17
	0x0000:  5254 0012 3456 5255 0a00 0202 0800 4500  RT..4VRU......E.
	0x0010:  002d 001b 0000 4011 628b 0a00 0202 0a00  .-....@.b.......
	0x0020:  0219 65f3 07d0 0019 320c 7468 6973 2069  ..e.....2.this.i
	0x0030:  7320 7468 6520 686f 7374 2100            s.the.host!.
08:54:18.928846 IP 10.0.2.25.2000 > 10.0.2.2.26099: UDP, length 19
	0x0000:  ffff ffff ffff 5254 0012 3456 0800 4500  ......RT..4V..E.
	0x0010:  002f 0000 0000 6411 3ea4 0a00 0219 0a00  ./....d.>.......
	0x0020:  0202 07d0 65f3 001b 0000 6120 6d65 7373  ....e.....a.mess
	0x0030:  6167 6520 6672 6f6d 2078 7636 21         age.from.xv6!
08:54:18.930613 IP 10.0.2.2.26099 > 10.0.2.25.2000: UDP, length 17
	0x0000:  5254 0012 3456 5255 0a00 0202 0800 4500  RT..4VRU......E.
	0x0010:  002d 001c 0000 4011 628a 0a00 0202 0a00  .-....@.b.......
	0x0020:  0219 65f3 07d0 0019 320c 7468 6973 2069  ..e.....2.this.i
	0x0030:  7320 7468 6520 686f 7374 2100            s.the.host!.
08:54:18.932668 IP 10.0.2.25.2000 > 10.0.2.2.26099: UDP, length 19
	0x0000:  ffff ffff ffff 5254 0012 3456 0800 4500  ......RT..4V..E.
	0x0010:  002f 0000 0000 6411 3ea4 0a00 0219 0a00  ./....d.>.......
	0x0020:  0202 07d0 65f3 001b 0000 6120 6d65 7373  ....e.....a.mess
	0x0030:  6167 6520 6672 6f6d 2078 7636 21         age.from.xv6!
08:54:18.940426 IP 10.0.2.2.26099 > 10.0.2.25.2000: UDP, length 17
	0x0000:  5254 0012 3456 5255 0a00 0202 0800 4500  RT..4VRU......E.
	0x0010:  002d 001d 0000 4011 6289 0a00 0202 0a00  .-....@.b.......
	0x0020:  0219 65f3 07d0 0019 320c 7468 6973 2069  ..e.....2.this.i
	0x0030:  7320 7468 6520 686f 7374 2100            s.the.host!.
08:54:18.942521 IP 10.0.2.25.2000 > 10.0.2.2.26099: UDP, length 19
	0x0000:  ffff ffff ffff 5254 0012 3456 0800 4500  ......RT..4V..E.
	0x0010:  002f 0000 0000 6411 3ea4 0a00 0219 0a00  ./....d.>.......
	0x0020:  0202 07d0 65f3 001b 0000 6120 6d65 7373  ....e.....a.mess
	0x0030:  6167 6520 6672 6f6d 2078 7636 21         age.from.xv6!
08:54:18.944296 IP 10.0.2.2.26099 > 10.0.2.25.2000: UDP, length 17
	0x0000:  5254 0012 3456 5255 0a00 0202 0800 4500  RT..4VRU......E.
	0x0010:  002d 001e 0000 4011 6288 0a00 0202 0a00  .-....@.b.......
	0x0020:  0219 65f3 07d0 0019 320c 7468 6973 2069  ..e.....2.this.i
	0x0030:  7320 7468 6520 686f 7374 2100            s.the.host!.
08:54:18.947858 IP 10.0.2.25.2000 > 10.0.2.2.26099: UDP, length 19
	0x0000:  ffff ffff ffff 5254 0012 3456 0800 4500  ......RT..4V..E.
	0x0010:  002f 0000 0000 6411 3ea4 0a00 0219 0a00  ./....d.>.......
	0x0020:  0202 07d0 65f3 001b 0000 6120 6d65 7373  ....e.....a.mess
	0x0030:  6167 6520 6672 6f6d 2078 7636 21         age.from.xv6!
08:54:18.949783 IP 10.0.2.2.26099 > 10.0.2.25.2000: UDP, length 17
	0x0000:  5254 0012 3456 5255 0a00 0202 0800 4500  RT..4VRU......E.
	0x0010:  002d 001f 0000 4011 6287 0a00 0202 0a00  .-....@.b.......
	0x0020:  0219 65f3 07d0 0019 320c 7468 6973 2069  ..e.....2.this.i
	0x0030:  7320 7468 6520 686f 7374 2100            s.the.host!.
08:54:18.951910 IP 10.0.2.25.2000 > 10.0.2.2.26099: UDP, length 19
	0x0000:  ffff ffff ffff 5254 0012 3456 0800 4500  ......RT..4V..E.
	0x0010:  002f 0000 0000 6411 3ea4 0a00 0219 0a00  ./....d.>.......
	0x0020:  0202 07d0 65f3 001b 0000 6120 6d65 7373  ....e.....a.mess
	0x0030:  6167 6520 6672 6f6d 2078 7636 21         age.from.xv6!
08:54:18.953472 IP 10.0.2.2.26099 > 10.0.2.25.2000: UDP, length 17
	0x0000:  5254 0012 3456 5255 0a00 0202 0800 4500  RT..4VRU......E.
	0x0010:  002d 0020 0000 4011 6286 0a00 0202 0a00  .-....@.b.......
	0x0020:  0219 65f3 07d0 0019 320c 7468 6973 2069  ..e.....2.this.i
	0x0030:  7320 7468 6520 686f 7374 2100            s.the.host!.
08:54:18.955639 IP 10.0.2.25.2000 > 10.0.2.2.26099: UDP, length 19
	0x0000:  ffff ffff ffff 5254 0012 3456 0800 4500  ......RT..4V..E.
	0x0010:  002f 0000 0000 6411 3ea4 0a00 0219 0a00  ./....d.>.......
	0x0020:  0202 07d0 65f3 001b 0000 6120 6d65 7373  ....e.....a.mess
	0x0030:  6167 6520 6672 6f6d 2078 7636 21         age.from.xv6!
08:54:18.957406 IP 10.0.2.2.26099 > 10.0.2.25.2000: UDP, length 17
	0x0000:  5254 0012 3456 5255 0a00 0202 0800 4500  RT..4VRU......E.
	0x0010:  002d 0021 0000 4011 6285 0a00 0202 0a00  .-.!..@.b.......
	0x0020:  0219 65f3 07d0 0019 320c 7468 6973 2069  ..e.....2.this.i
	0x0030:  7320 7468 6520 686f 7374 2100            s.the.host!.
08:54:18.960509 IP 10.0.2.25.2000 > 10.0.2.2.26099: UDP, length 19
	0x0000:  ffff ffff ffff 5254 0012 3456 0800 4500  ......RT..4V..E.
	0x0010:  002f 0000 0000 6411 3ea4 0a00 0219 0a00  ./....d.>.......
	0x0020:  0202 07d0 65f3 001b 0000 6120 6d65 7373  ....e.....a.mess
	0x0030:  6167 6520 6672 6f6d 2078 7636 21         age.from.xv6!
08:54:18.962058 IP 10.0.2.2.26099 > 10.0.2.25.2000: UDP, length 17
	0x0000:  5254 0012 3456 5255 0a00 0202 0800 4500  RT..4VRU......E.
	0x0010:  002d 0022 0000 4011 6284 0a00 0202 0a00  .-."..@.b.......
	0x0020:  0219 65f3 07d0 0019 320c 7468 6973 2069  ..e.....2.this.i
	0x0030:  7320 7468 6520 686f 7374 2100            s.the.host!.
08:54:18.964152 IP 10.0.2.25.2000 > 10.0.2.2.26099: UDP, length 19
	0x0000:  ffff ffff ffff 5254 0012 3456 0800 4500  ......RT..4V..E.
	0x0010:  002f 0000 0000 6411 3ea4 0a00 0219 0a00  ./....d.>.......
	0x0020:  0202 07d0 65f3 001b 0000 6120 6d65 7373  ....e.....a.mess
	0x0030:  6167 6520 6672 6f6d 2078 7636 21         age.from.xv6!
08:54:18.965684 IP 10.0.2.2.26099 > 10.0.2.25.2000: UDP, length 17
	0x0000:  5254 0012 3456 5255 0a00 0202 0800 4500  RT..4VRU......E.
	0x0010:  002d 0023 0000 4011 6283 0a00 0202 0a00  .-.#..@.b.......
	0x0020:  0219 65f3 07d0 0019 320c 7468 6973 2069  ..e.....2.this.i
	0x0030:  7320 7468 6520 686f 7374 2100            s.the.host!.
08:54:18.967860 IP 10.0.2.25.2000 > 10.0.2.2.26099: UDP, length 19
	0x0000:  ffff ffff ffff 5254 0012 3456 0800 4500  ......RT..4V..E.
	0x0010:  002f 0000 0000 6411 3ea4 0a00 0219 0a00  ./....d.>.......
	0x0020:  0202 07d0 65f3 001b 0000 6120 6d65 7373  ....e.....a.mess
	0x0030:  6167 6520 6672 6f6d 2078 7636 21         age.from.xv6!
08:54:18.969786 IP 10.0.2.2.26099 > 10.0.2.25.2000: UDP, length 17
	0x0000:  5254 0012 3456 5255 0a00 0202 0800 4500  RT..4VRU......E.
	0x0010:  002d 0024 0000 4011 6282 0a00 0202 0a00  .-.$..@.b.......
	0x0020:  0219 65f3 07d0 0019 320c 7468 6973 2069  ..e.....2.this.i
	0x0030:  7320 7468 6520 686f 7374 2100            s.the.host!.
08:54:18.974805 IP 10.0.2.25.2000 > 10.0.2.2.26099: UDP, length 19
	0x0000:  ffff ffff ffff 5254 0012 3456 0800 4500  ......RT..4V..E.
	0x0010:  002f 0000 0000 6411 3ea4 0a00 0219 0a00  ./....d.>.......
	0x0020:  0202 07d0 65f3 001b 0000 6120 6d65 7373  ....e.....a.mess
	0x0030:  6167 6520 6672 6f6d 2078 7636 21         age.from.xv6!
08:54:18.976399 IP 10.0.2.2.26099 > 10.0.2.25.2000: UDP, length 17
	0x0000:  5254 0012 3456 5255 0a00 0202 0800 4500  RT..4VRU......E.
	0x0010:  002d 0025 0000 4011 6281 0a00 0202 0a00  .-.%..@.b.......
	0x0020:  0219 65f3 07d0 0019 320c 7468 6973 2069  ..e.....2.this.i
	0x0030:  7320 7468 6520 686f 7374 2100            s.the.host!.
08:54:18.979534 IP 10.0.2.25.2000 > 10.0.2.2.26099: UDP, length 19
	0x0000:  ffff ffff ffff 5254 0012 3456 0800 4500  ......RT..4V..E.
	0x0010:  002f 0000 0000 6411 3ea4 0a00 0219 0a00  ./....d.>.......
	0x0020:  0202 07d0 65f3 001b 0000 6120 6d65 7373  ....e.....a.mess
	0x0030:  6167 6520 6672 6f6d 2078 7636 21         age.from.xv6!
08:54:18.981215 IP 10.0.2.2.26099 > 10.0.2.25.2000: UDP, length 17
	0x0000:  5254 0012 3456 5255 0a00 0202 0800 4500  RT..4VRU......E.
	0x0010:  002d 0026 0000 4011 6280 0a00 0202 0a00  .-.&..@.b.......
	0x0020:  0219 65f3 07d0 0019 320c 7468 6973 2069  ..e.....2.this.i
	0x0030:  7320 7468 6520 686f 7374 2100            s.the.host!.
08:54:18.983655 IP 10.0.2.25.2000 > 10.0.2.2.26099: UDP, length 19
	0x0000:  ffff ffff ffff 5254 0012 3456 0800 4500  ......RT..4V..E.
	0x0010:  002f 0000 0000 6411 3ea4 0a00 0219 0a00  ./....d.>.......
	0x0020:  0202 07d0 65f3 001b 0000 6120 6d65 7373  ....e.....a.mess
	0x0030:  6167 6520 6672 6f6d 2078 7636 21         age.from.xv6!
08:54:18.985545 IP 10.0.2.2.26099 > 10.0.2.25.2000: UDP, length 17
	0x0000:  5254 0012 3456 5255 0a00 0202 0800 4500  RT..4VRU......E.
	0x0010:  002d 0027 0000 4011 627f 0a00 0202 0a00  .-.'..@.b.......
	0x0020:  0219 65f3 07d0 0019 320c 7468 6973 2069  ..e.....2.this.i
	0x0030:  7320 7468 6520 686f 7374 2100            s.the.host!.
08:54:18.998139 IP 10.0.2.25.2000 > 10.0.2.2.26099: UDP, length 19
	0x0000:  ffff ffff ffff 5254 0012 3456 0800 4500  ......RT..4V..E.
	0x0010:  002f 0000 0000 6411 3ea4 0a00 0219 0a00  ./....d.>.......
	0x0020:  0202 07d0 65f3 001b 0000 6120 6d65 7373  ....e.....a.mess
	0x0030:  6167 6520 6672 6f6d 2078 7636 21         age.from.xv6!
08:54:18.999663 IP 10.0.2.2.26099 > 10.0.2.25.2000: UDP, length 17
	0x0000:  5254 0012 3456 5255 0a00 0202 0800 4500  RT..4VRU......E.
	0x0010:  002d 0028 0000 4011 627e 0a00 0202 0a00  .-.(..@.b~......
	0x0020:  0219 65f3 07d0 0019 320c 7468 6973 2069  ..e.....2.this.i
	0x0030:  7320 7468 6520 686f 7374 2100            s.the.host!.
08:54:19.005510 IP 10.0.2.25.2000 > 10.0.2.2.26099: UDP, length 19
	0x0000:  ffff ffff ffff 5254 0012 3456 0800 4500  ......RT..4V..E.
	0x0010:  002f 0000 0000 6411 3ea4 0a00 0219 0a00  ./....d.>.......
	0x0020:  0202 07d0 65f3 001b 0000 6120 6d65 7373  ....e.....a.mess
	0x0030:  6167 6520 6672 6f6d 2078 7636 21         age.from.xv6!
08:54:19.005757 IP 10.0.2.2.26099 > 10.0.2.25.2000: UDP, length 17
	0x0000:  5254 0012 3456 5255 0a00 0202 0800 4500  RT..4VRU......E.
	0x0010:  002d 0029 0000 4011 627d 0a00 0202 0a00  .-.)..@.b}......
	0x0020:  0219 65f3 07d0 0019 320c 7468 6973 2069  ..e.....2.this.i
	0x0030:  7320 7468 6520 686f 7374 2100            s.the.host!.
08:54:19.008769 IP 10.0.2.25.2000 > 10.0.2.2.26099: UDP, length 19
	0x0000:  ffff ffff ffff 5254 0012 3456 0800 4500  ......RT..4V..E.
	0x0010:  002f 0000 0000 6411 3ea4 0a00 0219 0a00  ./....d.>.......
	0x0020:  0202 07d0 65f3 001b 0000 6120 6d65 7373  ....e.....a.mess
	0x0030:  6167 6520 6672 6f6d 2078 7636 21         age.from.xv6!
08:54:19.009017 IP 10.0.2.2.26099 > 10.0.2.25.2000: UDP, length 17
	0x0000:  5254 0012 3456 5255 0a00 0202 0800 4500  RT..4VRU......E.
	0x0010:  002d 002a 0000 4011 627c 0a00 0202 0a00  .-.*..@.b|......
	0x0020:  0219 65f3 07d0 0019 320c 7468 6973 2069  ..e.....2.this.i
	0x0030:  7320 7468 6520 686f 7374 2100            s.the.host!.
08:54:19.011878 IP 10.0.2.25.2000 > 10.0.2.2.26099: UDP, length 19
	0x0000:  ffff ffff ffff 5254 0012 3456 0800 4500  ......RT..4V..E.
	0x0010:  002f 0000 0000 6411 3ea4 0a00 0219 0a00  ./....d.>.......
	0x0020:  0202 07d0 65f3 001b 0000 6120 6d65 7373  ....e.....a.mess
	0x0030:  6167 6520 6672 6f6d 2078 7636 21         age.from.xv6!
08:54:19.022959 IP 10.0.2.2.26099 > 10.0.2.25.2000: UDP, length 17
	0x0000:  5254 0012 3456 5255 0a00 0202 0800 4500  RT..4VRU......E.
	0x0010:  002d 002b 0000 4011 627b 0a00 0202 0a00  .-.+..@.b{......
	0x0020:  0219 65f3 07d0 0019 320c 7468 6973 2069  ..e.....2.this.i
	0x0030:  7320 7468 6520 686f 7374 2100            s.the.host!.
08:54:19.025305 IP 10.0.2.25.2000 > 10.0.2.2.26099: UDP, length 19
	0x0000:  ffff ffff ffff 5254 0012 3456 0800 4500  ......RT..4V..E.
	0x0010:  002f 0000 0000 6411 3ea4 0a00 0219 0a00  ./....d.>.......
	0x0020:  0202 07d0 65f3 001b 0000 6120 6d65 7373  ....e.....a.mess
	0x0030:  6167 6520 6672 6f6d 2078 7636 21         age.from.xv6!
08:54:19.026664 IP 10.0.2.2.26099 > 10.0.2.25.2000: UDP, length 17
	0x0000:  5254 0012 3456 5255 0a00 0202 0800 4500  RT..4VRU......E.
	0x0010:  002d 002c 0000 4011 627a 0a00 0202 0a00  .-.,..@.bz......
	0x0020:  0219 65f3 07d0 0019 320c 7468 6973 2069  ..e.....2.this.i
	0x0030:  7320 7468 6520 686f 7374 2100            s.the.host!.
08:54:19.028751 IP 10.0.2.25.2000 > 10.0.2.2.26099: UDP, length 19
	0x0000:  ffff ffff ffff 5254 0012 3456 0800 4500  ......RT..4V..E.
	0x0010:  002f 0000 0000 6411 3ea4 0a00 0219 0a00  ./....d.>.......
	0x0020:  0202 07d0 65f3 001b 0000 6120 6d65 7373  ....e.....a.mess
	0x0030:  6167 6520 6672 6f6d 2078 7636 21         age.from.xv6!
08:54:19.029230 IP 10.0.2.2.26099 > 10.0.2.25.2000: UDP, length 17
	0x0000:  5254 0012 3456 5255 0a00 0202 0800 4500  RT..4VRU......E.
	0x0010:  002d 002d 0000 4011 6279 0a00 0202 0a00  .-.-..@.by......
	0x0020:  0219 65f3 07d0 0019 320c 7468 6973 2069  ..e.....2.this.i
	0x0030:  7320 7468 6520 686f 7374 2100            s.the.host!.
08:54:19.032396 IP 10.0.2.25.2000 > 10.0.2.2.26099: UDP, length 19
	0x0000:  ffff ffff ffff 5254 0012 3456 0800 4500  ......RT..4V..E.
	0x0010:  002f 0000 0000 6411 3ea4 0a00 0219 0a00  ./....d.>.......
	0x0020:  0202 07d0 65f3 001b 0000 6120 6d65 7373  ....e.....a.mess
	0x0030:  6167 6520 6672 6f6d 2078 7636 21         age.from.xv6!
08:54:19.032778 IP 10.0.2.2.26099 > 10.0.2.25.2000: UDP, length 17
	0x0000:  5254 0012 3456 5255 0a00 0202 0800 4500  RT..4VRU......E.
	0x0010:  002d 002e 0000 4011 6278 0a00 0202 0a00  .-....@.bx......
	0x0020:  0219 65f3 07d0 0019 320c 7468 6973 2069  ..e.....2.this.i
	0x0030:  7320 7468 6520 686f 7374 2100            s.the.host!.
08:54:19.034919 IP 10.0.2.25.2000 > 10.0.2.2.26099: UDP, length 19
	0x0000:  ffff ffff ffff 5254 0012 3456 0800 4500  ......RT..4V..E.
	0x0010:  002f 0000 0000 6411 3ea4 0a00 0219 0a00  ./....d.>.......
	0x0020:  0202 07d0 65f3 001b 0000 6120 6d65 7373  ....e.....a.mess
	0x0030:  6167 6520 6672 6f6d 2078 7636 21         age.from.xv6!
08:54:19.035177 IP 10.0.2.2.26099 > 10.0.2.25.2000: UDP, length 17
	0x0000:  5254 0012 3456 5255 0a00 0202 0800 4500  RT..4VRU......E.
	0x0010:  002d 002f 0000 4011 6277 0a00 0202 0a00  .-./..@.bw......
	0x0020:  0219 65f3 07d0 0019 320c 7468 6973 2069  ..e.....2.this.i
	0x0030:  7320 7468 6520 686f 7374 2100            s.the.host!.
08:54:19.037061 IP 10.0.2.25.2000 > 10.0.2.2.26099: UDP, length 19
	0x0000:  ffff ffff ffff 5254 0012 3456 0800 4500  ......RT..4V..E.
	0x0010:  002f 0000 0000 6411 3ea4 0a00 0219 0a00  ./....d.>.......
	0x0020:  0202 07d0 65f3 001b 0000 6120 6d65 7373  ....e.....a.mess
	0x0030:  6167 6520 6672 6f6d 2078 7636 21         age.from.xv6!
08:54:19.037394 IP 10.0.2.2.26099 > 10.0.2.25.2000: UDP, length 17
	0x0000:  5254 0012 3456 5255 0a00 0202 0800 4500  RT..4VRU......E.
	0x0010:  002d 0030 0000 4011 6276 0a00 0202 0a00  .-.0..@.bv......
	0x0020:  0219 65f3 07d0 0019 320c 7468 6973 2069  ..e.....2.this.i
	0x0030:  7320 7468 6520 686f 7374 2100            s.the.host!.
08:54:19.039299 IP 10.0.2.25.2000 > 10.0.2.2.26099: UDP, length 19
	0x0000:  ffff ffff ffff 5254 0012 3456 0800 4500  ......RT..4V..E.
	0x0010:  002f 0000 0000 6411 3ea4 0a00 0219 0a00  ./....d.>.......
	0x0020:  0202 07d0 65f3 001b 0000 6120 6d65 7373  ....e.....a.mess
	0x0030:  6167 6520 6672 6f6d 2078 7636 21         age.from.xv6!
08:54:19.039624 IP 10.0.2.2.26099 > 10.0.2.25.2000: UDP, length 17
	0x0000:  5254 0012 3456 5255 0a00 0202 0800 4500  RT..4VRU......E.
	0x0010:  002d 0031 0000 4011 6275 0a00 0202 0a00  .-.1..@.bu......
	0x0020:  0219 65f3 07d0 0019 320c 7468 6973 2069  ..e.....2.this.i
	0x0030:  7320 7468 6520 686f 7374 2100            s.the.host!.
08:54:19.041751 IP 10.0.2.25.2000 > 10.0.2.2.26099: UDP, length 19
	0x0000:  ffff ffff ffff 5254 0012 3456 0800 4500  ......RT..4V..E.
	0x0010:  002f 0000 0000 6411 3ea4 0a00 0219 0a00  ./....d.>.......
	0x0020:  0202 07d0 65f3 001b 0000 6120 6d65 7373  ....e.....a.mess
	0x0030:  6167 6520 6672 6f6d 2078 7636 21         age.from.xv6!
08:54:19.042189 IP 10.0.2.2.26099 > 10.0.2.25.2000: UDP, length 17
	0x0000:  5254 0012 3456 5255 0a00 0202 0800 4500  RT..4VRU......E.
	0x0010:  002d 0032 0000 4011 6274 0a00 0202 0a00  .-.2..@.bt......
	0x0020:  0219 65f3 07d0 0019 320c 7468 6973 2069  ..e.....2.this.i
	0x0030:  7320 7468 6520 686f 7374 2100            s.the.host!.
08:54:19.044110 IP 10.0.2.25.2000 > 10.0.2.2.26099: UDP, length 19
	0x0000:  ffff ffff ffff 5254 0012 3456 0800 4500  ......RT..4V..E.
	0x0010:  002f 0000 0000 6411 3ea4 0a00 0219 0a00  ./....d.>.......
	0x0020:  0202 07d0 65f3 001b 0000 6120 6d65 7373  ....e.....a.mess
	0x0030:  6167 6520 6672 6f6d 2078 7636 21         age.from.xv6!
08:54:19.044565 IP 10.0.2.2.26099 > 10.0.2.25.2000: UDP, length 17
	0x0000:  5254 0012 3456 5255 0a00 0202 0800 4500  RT..4VRU......E.
	0x0010:  002d 0033 0000 4011 6273 0a00 0202 0a00  .-.3..@.bs......
	0x0020:  0219 65f3 07d0 0019 320c 7468 6973 2069  ..e.....2.this.i
	0x0030:  7320 7468 6520 686f 7374 2100            s.the.host!.
08:54:19.046484 IP 10.0.2.25.2000 > 10.0.2.2.26099: UDP, length 19
	0x0000:  ffff ffff ffff 5254 0012 3456 0800 4500  ......RT..4V..E.
	0x0010:  002f 0000 0000 6411 3ea4 0a00 0219 0a00  ./....d.>.......
	0x0020:  0202 07d0 65f3 001b 0000 6120 6d65 7373  ....e.....a.mess
	0x0030:  6167 6520 6672 6f6d 2078 7636 21         age.from.xv6!
08:54:19.046924 IP 10.0.2.2.26099 > 10.0.2.25.2000: UDP, length 17
	0x0000:  5254 0012 3456 5255 0a00 0202 0800 4500  RT..4VRU......E.
	0x0010:  002d 0034 0000 4011 6272 0a00 0202 0a00  .-.4..@.br......
	0x0020:  0219 65f3 07d0 0019 320c 7468 6973 2069  ..e.....2.this.i
	0x0030:  7320 7468 6520 686f 7374 2100            s.the.host!.
08:54:19.050804 IP 10.0.2.25.2000 > 10.0.2.2.26099: UDP, length 19
	0x0000:  ffff ffff ffff 5254 0012 3456 0800 4500  ......RT..4V..E.
	0x0010:  002f 0000 0000 6411 3ea4 0a00 0219 0a00  ./....d.>.......
	0x0020:  0202 07d0 65f3 001b 0000 6120 6d65 7373  ....e.....a.mess
	0x0030:  6167 6520 6672 6f6d 2078 7636 21         age.from.xv6!
08:54:19.051267 IP 10.0.2.2.26099 > 10.0.2.25.2000: UDP, length 17
	0x0000:  5254 0012 3456 5255 0a00 0202 0800 4500  RT..4VRU......E.
	0x0010:  002d 0035 0000 4011 6271 0a00 0202 0a00  .-.5..@.bq......
	0x0020:  0219 65f3 07d0 0019 320c 7468 6973 2069  ..e.....2.this.i
	0x0030:  7320 7468 6520 686f 7374 2100            s.the.host!.
08:54:19.053605 IP 10.0.2.25.2000 > 10.0.2.2.26099: UDP, length 19
	0x0000:  ffff ffff ffff 5254 0012 3456 0800 4500  ......RT..4V..E.
	0x0010:  002f 0000 0000 6411 3ea4 0a00 0219 0a00  ./....d.>.......
	0x0020:  0202 07d0 65f3 001b 0000 6120 6d65 7373  ....e.....a.mess
	0x0030:  6167 6520 6672 6f6d 2078 7636 21         age.from.xv6!
08:54:19.053918 IP 10.0.2.2.26099 > 10.0.2.25.2000: UDP, length 17
	0x0000:  5254 0012 3456 5255 0a00 0202 0800 4500  RT..4VRU......E.
	0x0010:  002d 0036 0000 4011 6270 0a00 0202 0a00  .-.6..@.bp......
	0x0020:  0219 65f3 07d0 0019 320c 7468 6973 2069  ..e.....2.this.i
	0x0030:  7320 7468 6520 686f 7374 2100            s.the.host!.
08:54:19.055842 IP 10.0.2.25.2000 > 10.0.2.2.26099: UDP, length 19
	0x0000:  ffff ffff ffff 5254 0012 3456 0800 4500  ......RT..4V..E.
	0x0010:  002f 0000 0000 6411 3ea4 0a00 0219 0a00  ./....d.>.......
	0x0020:  0202 07d0 65f3 001b 0000 6120 6d65 7373  ....e.....a.mess
	0x0030:  6167 6520 6672 6f6d 2078 7636 21         age.from.xv6!
08:54:19.056282 IP 10.0.2.2.26099 > 10.0.2.25.2000: UDP, length 17
	0x0000:  5254 0012 3456 5255 0a00 0202 0800 4500  RT..4VRU......E.
	0x0010:  002d 0037 0000 4011 626f 0a00 0202 0a00  .-.7..@.bo......
	0x0020:  0219 65f3 07d0 0019 320c 7468 6973 2069  ..e.....2.this.i
	0x0030:  7320 7468 6520 686f 7374 2100            s.the.host!.
08:54:19.058577 IP 10.0.2.25.2000 > 10.0.2.2.26099: UDP, length 19
	0x0000:  ffff ffff ffff 5254 0012 3456 0800 4500  ......RT..4V..E.
	0x0010:  002f 0000 0000 6411 3ea4 0a00 0219 0a00  ./....d.>.......
	0x0020:  0202 07d0 65f3 001b 0000 6120 6d65 7373  ....e.....a.mess
	0x0030:  6167 6520 6672 6f6d 2078 7636 21         age.from.xv6!
08:54:19.059014 IP 10.0.2.2.26099 > 10.0.2.25.2000: UDP, length 17
	0x0000:  5254 0012 3456 5255 0a00 0202 0800 4500  RT..4VRU......E.
	0x0010:  002d 0038 0000 4011 626e 0a00 0202 0a00  .-.8..@.bn......
	0x0020:  0219 65f3 07d0 0019 320c 7468 6973 2069  ..e.....2.this.i
	0x0030:  7320 7468 6520 686f 7374 2100            s.the.host!.
08:54:19.060832 IP 10.0.2.25.2000 > 10.0.2.2.26099: UDP, length 19
	0x0000:  ffff ffff ffff 5254 0012 3456 0800 4500  ......RT..4V..E.
	0x0010:  002f 0000 0000 6411 3ea4 0a00 0219 0a00  ./....d.>.......
	0x0020:  0202 07d0 65f3 001b 0000 6120 6d65 7373  ....e.....a.mess
	0x0030:  6167 6520 6672 6f6d 2078 7636 21         age.from.xv6!
08:54:19.061247 IP 10.0.2.2.26099 > 10.0.2.25.2000: UDP, length 17
	0x0000:  5254 0012 3456 5255 0a00 0202 0800 4500  RT..4VRU......E.
	0x0010:  002d 0039 0000 4011 626d 0a00 0202 0a00  .-.9..@.bm......
	0x0020:  0219 65f3 07d0 0019 320c 7468 6973 2069  ..e.....2.this.i
	0x0030:  7320 7468 6520 686f 7374 2100            s.the.host!.
08:54:19.063508 IP 10.0.2.25.2000 > 10.0.2.2.26099: UDP, length 19
	0x0000:  ffff ffff ffff 5254 0012 3456 0800 4500  ......RT..4V..E.
	0x0010:  002f 0000 0000 6411 3ea4 0a00 0219 0a00  ./....d.>.......
	0x0020:  0202 07d0 65f3 001b 0000 6120 6d65 7373  ....e.....a.mess
	0x0030:  6167 6520 6672 6f6d 2078 7636 21         age.from.xv6!
08:54:19.063788 IP 10.0.2.2.26099 > 10.0.2.25.2000: UDP, length 17
	0x0000:  5254 0012 3456 5255 0a00 0202 0800 4500  RT..4VRU......E.
	0x0010:  002d 003a 0000 4011 626c 0a00 0202 0a00  .-.:..@.bl......
	0x0020:  0219 65f3 07d0 0019 320c 7468 6973 2069  ..e.....2.this.i
	0x0030:  7320 7468 6520 686f 7374 2100            s.the.host!.
08:54:19.065690 IP 10.0.2.25.2000 > 10.0.2.2.26099: UDP, length 19
	0x0000:  ffff ffff ffff 5254 0012 3456 0800 4500  ......RT..4V..E.
	0x0010:  002f 0000 0000 6411 3ea4 0a00 0219 0a00  ./....d.>.......
	0x0020:  0202 07d0 65f3 001b 0000 6120 6d65 7373  ....e.....a.mess
	0x0030:  6167 6520 6672 6f6d 2078 7636 21         age.from.xv6!
08:54:19.066040 IP 10.0.2.2.26099 > 10.0.2.25.2000: UDP, length 17
	0x0000:  5254 0012 3456 5255 0a00 0202 0800 4500  RT..4VRU......E.
	0x0010:  002d 003b 0000 4011 626b 0a00 0202 0a00  .-.;..@.bk......
	0x0020:  0219 65f3 07d0 0019 320c 7468 6973 2069  ..e.....2.this.i
	0x0030:  7320 7468 6520 686f 7374 2100            s.the.host!.
08:54:19.067974 IP 10.0.2.25.2000 > 10.0.2.2.26099: UDP, length 19
	0x0000:  ffff ffff ffff 5254 0012 3456 0800 4500  ......RT..4V..E.
	0x0010:  002f 0000 0000 6411 3ea4 0a00 0219 0a00  ./....d.>.......
	0x0020:  0202 07d0 65f3 001b 0000 6120 6d65 7373  ....e.....a.mess
	0x0030:  6167 6520 6672 6f6d 2078 7636 21         age.from.xv6!
08:54:19.068430 IP 10.0.2.2.26099 > 10.0.2.25.2000: UDP, length 17
	0x0000:  5254 0012 3456 5255 0a00 0202 0800 4500  RT..4VRU......E.
	0x0010:  002d 003c 0000 4011 626a 0a00 0202 0a00  .-.<..@.bj......
	0x0020:  0219 65f3 07d0 0019 320c 7468 6973 2069  ..e.....2.this.i
	0x0030:  7320 7468 6520 686f 7374 2100            s.the.host!.
08:54:19.070359 IP 10.0.2.25.2000 > 10.0.2.2.26099: UDP, length 19
	0x0000:  ffff ffff ffff 5254 0012 3456 0800 4500  ......RT..4V..E.
	0x0010:  002f 0000 0000 6411 3ea4 0a00 0219 0a00  ./....d.>.......
	0x0020:  0202 07d0 65f3 001b 0000 6120 6d65 7373  ....e.....a.mess
	0x0030:  6167 6520 6672 6f6d 2078 7636 21         age.from.xv6!
08:54:19.070810 IP 10.0.2.2.26099 > 10.0.2.25.2000: UDP, length 17
	0x0000:  5254 0012 3456 5255 0a00 0202 0800 4500  RT..4VRU......E.
	0x0010:  002d 003d 0000 4011 6269 0a00 0202 0a00  .-.=..@.bi......
	0x0020:  0219 65f3 07d0 0019 320c 7468 6973 2069  ..e.....2.this.i
	0x0030:  7320 7468 6520 686f 7374 2100            s.the.host!.
08:54:19.072783 IP 10.0.2.25.2000 > 10.0.2.2.26099: UDP, length 19
	0x0000:  ffff ffff ffff 5254 0012 3456 0800 4500  ......RT..4V..E.
	0x0010:  002f 0000 0000 6411 3ea4 0a00 0219 0a00  ./....d.>.......
	0x0020:  0202 07d0 65f3 001b 0000 6120 6d65 7373  ....e.....a.mess
	0x0030:  6167 6520 6672 6f6d 2078 7636 21         age.from.xv6!
08:54:19.073247 IP 10.0.2.2.26099 > 10.0.2.25.2000: UDP, length 17
	0x0000:  5254 0012 3456 5255 0a00 0202 0800 4500  RT..4VRU......E.
	0x0010:  002d 003e 0000 4011 6268 0a00 0202 0a00  .-.>..@.bh......
	0x0020:  0219 65f3 07d0 0019 320c 7468 6973 2069  ..e.....2.this.i
	0x0030:  7320 7468 6520 686f 7374 2100            s.the.host!.
08:54:19.075170 IP 10.0.2.25.2000 > 10.0.2.2.26099: UDP, length 19
	0x0000:  ffff ffff ffff 5254 0012 3456 0800 4500  ......RT..4V..E.
	0x0010:  002f 0000 0000 6411 3ea4 0a00 0219 0a00  ./....d.>.......
	0x0020:  0202 07d0 65f3 001b 0000 6120 6d65 7373  ....e.....a.mess
	0x0030:  6167 6520 6672 6f6d 2078 7636 21         age.from.xv6!
08:54:19.075595 IP 10.0.2.2.26099 > 10.0.2.25.2000: UDP, length 17
	0x0000:  5254 0012 3456 5255 0a00 0202 0800 4500  RT..4VRU......E.
	0x0010:  002d 003f 0000 4011 6267 0a00 0202 0a00  .-.?..@.bg......
	0x0020:  0219 65f3 07d0 0019 320c 7468 6973 2069  ..e.....2.this.i
	0x0030:  7320 7468 6520 686f 7374 2100            s.the.host!.
08:54:19.077502 IP 10.0.2.25.2000 > 10.0.2.2.26099: UDP, length 19
	0x0000:  ffff ffff ffff 5254 0012 3456 0800 4500  ......RT..4V..E.
	0x0010:  002f 0000 0000 6411 3ea4 0a00 0219 0a00  ./....d.>.......
	0x0020:  0202 07d0 65f3 001b 0000 6120 6d65 7373  ....e.....a.mess
	0x0030:  6167 6520 6672 6f6d 2078 7636 21         age.from.xv6!
08:54:19.077912 IP 10.0.2.2.26099 > 10.0.2.25.2000: UDP, length 17
	0x0000:  5254 0012 3456 5255 0a00 0202 0800 4500  RT..4VRU......E.
	0x0010:  002d 0040 0000 4011 6266 0a00 0202 0a00  .-.@..@.bf......
	0x0020:  0219 65f3 07d0 0019 320c 7468 6973 2069  ..e.....2.this.i
	0x0030:  7320 7468 6520 686f 7374 2100            s.the.host!.
08:54:19.079841 IP 10.0.2.25.2000 > 10.0.2.2.26099: UDP, length 19
	0x0000:  ffff ffff ffff 5254 0012 3456 0800 4500  ......RT..4V..E.
	0x0010:  002f 0000 0000 6411 3ea4 0a00 0219 0a00  ./....d.>.......
	0x0020:  0202 07d0 65f3 001b 0000 6120 6d65 7373  ....e.....a.mess
	0x0030:  6167 6520 6672 6f6d 2078 7636 21         age.from.xv6!
08:54:19.080326 IP 10.0.2.2.26099 > 10.0.2.25.2000: UDP, length 17
	0x0000:  5254 0012 3456 5255 0a00 0202 0800 4500  RT..4VRU......E.
	0x0010:  002d 0041 0000 4011 6265 0a00 0202 0a00  .-.A..@.be......
	0x0020:  0219 65f3 07d0 0019 320c 7468 6973 2069  ..e.....2.this.i
	0x0030:  7320 7468 6520 686f 7374 2100            s.the.host!.
08:54:19.082273 IP 10.0.2.25.2000 > 10.0.2.2.26099: UDP, length 19
	0x0000:  ffff ffff ffff 5254 0012 3456 0800 4500  ......RT..4V..E.
	0x0010:  002f 0000 0000 6411 3ea4 0a00 0219 0a00  ./....d.>.......
	0x0020:  0202 07d0 65f3 001b 0000 6120 6d65 7373  ....e.....a.mess
	0x0030:  6167 6520 6672 6f6d 2078 7636 21         age.from.xv6!
08:54:19.082690 IP 10.0.2.2.26099 > 10.0.2.25.2000: UDP, length 17
	0x0000:  5254 0012 3456 5255 0a00 0202 0800 4500  RT..4VRU......E.
	0x0010:  002d 0042 0000 4011 6264 0a00 0202 0a00  .-.B..@.bd......
	0x0020:  0219 65f3 07d0 0019 320c 7468 6973 2069  ..e.....2.this.i
	0x0030:  7320 7468 6520 686f 7374 2100            s.the.host!.
08:54:19.084660 IP 10.0.2.25.2000 > 10.0.2.2.26099: UDP, length 19
	0x0000:  ffff ffff ffff 5254 0012 3456 0800 4500  ......RT..4V..E.
	0x0010:  002f 0000 0000 6411 3ea4 0a00 0219 0a00  ./....d.>.......
	0x0020:  0202 07d0 65f3 001b 0000 6120 6d65 7373  ....e.....a.mess
	0x0030:  6167 6520 6672 6f6d 2078 7636 21         age.from.xv6!
08:54:19.085006 IP 10.0.2.2.26099 > 10.0.2.25.2000: UDP, length 17
	0x0000:  5254 0012 3456 5255 0a00 0202 0800 4500  RT..4VRU......E.
	0x0010:  002d 0043 0000 4011 6263 0a00 0202 0a00  .-.C..@.bc......
	0x0020:  0219 65f3 07d0 0019 320c 7468 6973 2069  ..e.....2.this.i
	0x0030:  7320 7468 6520 686f 7374 2100            s.the.host!.
08:54:19.086950 IP 10.0.2.25.2000 > 10.0.2.2.26099: UDP, length 19
	0x0000:  ffff ffff ffff 5254 0012 3456 0800 4500  ......RT..4V..E.
	0x0010:  002f 0000 0000 6411 3ea4 0a00 0219 0a00  ./....d.>.......
	0x0020:  0202 07d0 65f3 001b 0000 6120 6d65 7373  ....e.....a.mess
	0x0030:  6167 6520 6672 6f6d 2078 7636 21         age.from.xv6!
08:54:19.087288 IP 10.0.2.2.26099 > 10.0.2.25.2000: UDP, length 17
	0x0000:  5254 0012 3456 5255 0a00 0202 0800 4500  RT..4VRU......E.
	0x0010:  002d 0044 0000 4011 6262 0a00 0202 0a00  .-.D..@.bb......
	0x0020:  0219 65f3 07d0 0019 320c 7468 6973 2069  ..e.....2.this.i
	0x0030:  7320 7468 6520 686f 7374 2100            s.the.host!.
08:54:19.089189 IP 10.0.2.25.2000 > 10.0.2.2.26099: UDP, length 19
	0x0000:  ffff ffff ffff 5254 0012 3456 0800 4500  ......RT..4V..E.
	0x0010:  002f 0000 0000 6411 3ea4 0a00 0219 0a00  ./....d.>.......
	0x0020:  0202 07d0 65f3 001b 0000 6120 6d65 7373  ....e.....a.mess
	0x0030:  6167 6520 6672 6f6d 2078 7636 21         age.from.xv6!
08:54:19.089497 IP 10.0.2.2.26099 > 10.0.2.25.2000: UDP, length 17
	0x0000:  5254 0012 3456 5255 0a00 0202 0800 4500  RT..4VRU......E.
	0x0010:  002d 0045 0000 4011 6261 0a00 0202 0a00  .-.E..@.ba......
	0x0020:  0219 65f3 07d0 0019 320c 7468 6973 2069  ..e.....2.this.i
	0x0030:  7320 7468 6520 686f 7374 2100            s.the.host!.
08:54:19.091397 IP 10.0.2.25.2000 > 10.0.2.2.26099: UDP, length 19
	0x0000:  ffff ffff ffff 5254 0012 3456 0800 4500  ......RT..4V..E.
	0x0010:  002f 0000 0000 6411 3ea4 0a00 0219 0a00  ./....d.>.......
	0x0020:  0202 07d0 65f3 001b 0000 6120 6d65 7373  ....e.....a.mess
	0x0030:  6167 6520 6672 6f6d 2078 7636 21         age.from.xv6!
08:54:19.091714 IP 10.0.2.2.26099 > 10.0.2.25.2000: UDP, length 17
	0x0000:  5254 0012 3456 5255 0a00 0202 0800 4500  RT..4VRU......E.
	0x0010:  002d 0046 0000 4011 6260 0a00 0202 0a00  .-.F..@.b`......
	0x0020:  0219 65f3 07d0 0019 320c 7468 6973 2069  ..e.....2.this.i
	0x0030:  7320 7468 6520 686f 7374 2100            s.the.host!.
08:54:19.093627 IP 10.0.2.25.2000 > 10.0.2.2.26099: UDP, length 19
	0x0000:  ffff ffff ffff 5254 0012 3456 0800 4500  ......RT..4V..E.
	0x0010:  002f 0000 0000 6411 3ea4 0a00 0219 0a00  ./....d.>.......
	0x0020:  0202 07d0 65f3 001b 0000 6120 6d65 7373  ....e.....a.mess
	0x0030:  6167 6520 6672 6f6d 2078 7636 21         age.from.xv6!
08:54:19.093963 IP 10.0.2.2.26099 > 10.0.2.25.2000: UDP, length 17
	0x0000:  5254 0012 3456 5255 0a00 0202 0800 4500  RT..4VRU......E.
	0x0010:  002d 0047 0000 4011 625f 0a00 0202 0a00  .-.G..@.b_......
	0x0020:  0219 65f3 07d0 0019 320c 7468 6973 2069  ..e.....2.this.i
	0x0030:  7320 7468 6520 686f 7374 2100            s.the.host!.
08:54:19.095890 IP 10.0.2.25.2000 > 10.0.2.2.26099: UDP, length 19
	0x0000:  ffff ffff ffff 5254 0012 3456 0800 4500  ......RT..4V..E.
	0x0010:  002f 0000 0000 6411 3ea4 0a00 0219 0a00  ./....d.>.......
	0x0020:  0202 07d0 65f3 001b 0000 6120 6d65 7373  ....e.....a.mess
	0x0030:  6167 6520 6672 6f6d 2078 7636 21         age.from.xv6!
08:54:19.096199 IP 10.0.2.2.26099 > 10.0.2.25.2000: UDP, length 17
	0x0000:  5254 0012 3456 5255 0a00 0202 0800 4500  RT..4VRU......E.
	0x0010:  002d 0048 0000 4011 625e 0a00 0202 0a00  .-.H..@.b^......
	0x0020:  0219 65f3 07d0 0019 320c 7468 6973 2069  ..e.....2.this.i
	0x0030:  7320 7468 6520 686f 7374 2100            s.the.host!.
08:54:19.098093 IP 10.0.2.25.2000 > 10.0.2.2.26099: UDP, length 19
	0x0000:  ffff ffff ffff 5254 0012 3456 0800 4500  ......RT..4V..E.
	0x0010:  002f 0000 0000 6411 3ea4 0a00 0219 0a00  ./....d.>.......
	0x0020:  0202 07d0 65f3 001b 0000 6120 6d65 7373  ....e.....a.mess
	0x0030:  6167 6520 6672 6f6d 2078 7636 21         age.from.xv6!
08:54:19.098397 IP 10.0.2.2.26099 > 10.0.2.25.2000: UDP, length 17
	0x0000:  5254 0012 3456 5255 0a00 0202 0800 4500  RT..4VRU......E.
	0x0010:  002d 0049 0000 4011 625d 0a00 0202 0a00  .-.I..@.b]......
	0x0020:  0219 65f3 07d0 0019 320c 7468 6973 2069  ..e.....2.this.i
	0x0030:  7320 7468 6520 686f 7374 2100            s.the.host!.
08:54:19.100377 IP 10.0.2.25.2000 > 10.0.2.2.26099: UDP, length 19
	0x0000:  ffff ffff ffff 5254 0012 3456 0800 4500  ......RT..4V..E.
	0x0010:  002f 0000 0000 6411 3ea4 0a00 0219 0a00  ./....d.>.......
	0x0020:  0202 07d0 65f3 001b 0000 6120 6d65 7373  ....e.....a.mess
	0x0030:  6167 6520 6672 6f6d 2078 7636 21         age.from.xv6!
08:54:19.100697 IP 10.0.2.2.26099 > 10.0.2.25.2000: UDP, length 17
	0x0000:  5254 0012 3456 5255 0a00 0202 0800 4500  RT..4VRU......E.
	0x0010:  002d 004a 0000 4011 625c 0a00 0202 0a00  .-.J..@.b\......
	0x0020:  0219 65f3 07d0 0019 320c 7468 6973 2069  ..e.....2.this.i
	0x0030:  7320 7468 6520 686f 7374 2100            s.the.host!.
08:54:19.104246 IP 10.0.2.25.2000 > 10.0.2.2.26099: UDP, length 19
	0x0000:  ffff ffff ffff 5254 0012 3456 0800 4500  ......RT..4V..E.
	0x0010:  002f 0000 0000 6411 3ea4 0a00 0219 0a00  ./....d.>.......
	0x0020:  0202 07d0 65f3 001b 0000 6120 6d65 7373  ....e.....a.mess
	0x0030:  6167 6520 6672 6f6d 2078 7636 21         age.from.xv6!
08:54:19.104558 IP 10.0.2.2.26099 > 10.0.2.25.2000: UDP, length 17
	0x0000:  5254 0012 3456 5255 0a00 0202 0800 4500  RT..4VRU......E.
	0x0010:  002d 004b 0000 4011 625b 0a00 0202 0a00  .-.K..@.b[......
	0x0020:  0219 65f3 07d0 0019 320c 7468 6973 2069  ..e.....2.this.i
	0x0030:  7320 7468 6520 686f 7374 2100            s.the.host!.
08:54:19.106485 IP 10.0.2.25.2000 > 10.0.2.2.26099: UDP, length 19
	0x0000:  ffff ffff ffff 5254 0012 3456 0800 4500  ......RT..4V..E.
	0x0010:  002f 0000 0000 6411 3ea4 0a00 0219 0a00  ./....d.>.......
	0x0020:  0202 07d0 65f3 001b 0000 6120 6d65 7373  ....e.....a.mess
	0x0030:  6167 6520 6672 6f6d 2078 7636 21         age.from.xv6!
08:54:19.106826 IP 10.0.2.2.26099 > 10.0.2.25.2000: UDP, length 17
	0x0000:  5254 0012 3456 5255 0a00 0202 0800 4500  RT..4VRU......E.
	0x0010:  002d 004c 0000 4011 625a 0a00 0202 0a00  .-.L..@.bZ......
	0x0020:  0219 65f3 07d0 0019 320c 7468 6973 2069  ..e.....2.this.i
	0x0030:  7320 7468 6520 686f 7374 2100            s.the.host!.
08:54:19.108722 IP 10.0.2.25.2000 > 10.0.2.2.26099: UDP, length 19
	0x0000:  ffff ffff ffff 5254 0012 3456 0800 4500  ......RT..4V..E.
	0x0010:  002f 0000 0000 6411 3ea4 0a00 0219 0a00  ./....d.>.......
	0x0020:  0202 07d0 65f3 001b 0000 6120 6d65 7373  ....e.....a.mess
	0x0030:  6167 6520 6672 6f6d 2078 7636 21         age.from.xv6!
08:54:19.109022 IP 10.0.2.2.26099 > 10.0.2.25.2000: UDP, length 17
	0x0000:  5254 0012 3456 5255 0a00 0202 0800 4500  RT..4VRU......E.
	0x0010:  002d 004d 0000 4011 6259 0a00 0202 0a00  .-.M..@.bY......
	0x0020:  0219 65f3 07d0 0019 320c 7468 6973 2069  ..e.....2.this.i
	0x0030:  7320 7468 6520 686f 7374 2100            s.the.host!.
08:54:19.111051 IP 10.0.2.25.2000 > 10.0.2.2.26099: UDP, length 19
	0x0000:  ffff ffff ffff 5254 0012 3456 0800 4500  ......RT..4V..E.
	0x0010:  002f 0000 0000 6411 3ea4 0a00 0219 0a00  ./....d.>.......
	0x0020:  0202 07d0 65f3 001b 0000 6120 6d65 7373  ....e.....a.mess
	0x0030:  6167 6520 6672 6f6d 2078 7636 21         age.from.xv6!
08:54:19.111377 IP 10.0.2.2.26099 > 10.0.2.25.2000: UDP, length 17
	0x0000:  5254 0012 3456 5255 0a00 0202 0800 4500  RT..4VRU......E.
	0x0010:  002d 004e 0000 4011 6258 0a00 0202 0a00  .-.N..@.bX......
	0x0020:  0219 65f3 07d0 0019 320c 7468 6973 2069  ..e.....2.this.i
	0x0030:  7320 7468 6520 686f 7374 2100            s.the.host!.
08:54:19.113314 IP 10.0.2.25.2000 > 10.0.2.2.26099: UDP, length 19
	0x0000:  ffff ffff ffff 5254 0012 3456 0800 4500  ......RT..4V..E.
	0x0010:  002f 0000 0000 6411 3ea4 0a00 0219 0a00  ./....d.>.......
	0x0020:  0202 07d0 65f3 001b 0000 6120 6d65 7373  ....e.....a.mess
	0x0030:  6167 6520 6672 6f6d 2078 7636 21         age.from.xv6!
08:54:19.113663 IP 10.0.2.2.26099 > 10.0.2.25.2000: UDP, length 17
	0x0000:  5254 0012 3456 5255 0a00 0202 0800 4500  RT..4VRU......E.
	0x0010:  002d 004f 0000 4011 6257 0a00 0202 0a00  .-.O..@.bW......
	0x0020:  0219 65f3 07d0 0019 320c 7468 6973 2069  ..e.....2.this.i
	0x0030:  7320 7468 6520 686f 7374 2100            s.the.host!.
08:54:19.115605 IP 10.0.2.25.2000 > 10.0.2.2.26099: UDP, length 19
	0x0000:  ffff ffff ffff 5254 0012 3456 0800 4500  ......RT..4V..E.
	0x0010:  002f 0000 0000 6411 3ea4 0a00 0219 0a00  ./....d.>.......
	0x0020:  0202 07d0 65f3 001b 0000 6120 6d65 7373  ....e.....a.mess
	0x0030:  6167 6520 6672 6f6d 2078 7636 21         age.from.xv6!
08:54:19.115920 IP 10.0.2.2.26099 > 10.0.2.25.2000: UDP, length 17
	0x0000:  5254 0012 3456 5255 0a00 0202 0800 4500  RT..4VRU......E.
	0x0010:  002d 0050 0000 4011 6256 0a00 0202 0a00  .-.P..@.bV......
	0x0020:  0219 65f3 07d0 0019 320c 7468 6973 2069  ..e.....2.this.i
	0x0030:  7320 7468 6520 686f 7374 2100            s.the.host!.
08:54:19.117778 IP 10.0.2.25.2000 > 10.0.2.2.26099: UDP, length 19
	0x0000:  ffff ffff ffff 5254 0012 3456 0800 4500  ......RT..4V..E.
	0x0010:  002f 0000 0000 6411 3ea4 0a00 0219 0a00  ./....d.>.......
	0x0020:  0202 07d0 65f3 001b 0000 6120 6d65 7373  ....e.....a.mess
	0x0030:  6167 6520 6672 6f6d 2078 7636 21         age.from.xv6!
08:54:19.118092 IP 10.0.2.2.26099 > 10.0.2.25.2000: UDP, length 17
	0x0000:  5254 0012 3456 5255 0a00 0202 0800 4500  RT..4VRU......E.
	0x0010:  002d 0051 0000 4011 6255 0a00 0202 0a00  .-.Q..@.bU......
	0x0020:  0219 65f3 07d0 0019 320c 7468 6973 2069  ..e.....2.this.i
	0x0030:  7320 7468 6520 686f 7374 2100            s.the.host!.
08:54:19.119912 IP 10.0.2.25.2000 > 10.0.2.2.26099: UDP, length 19
	0x0000:  ffff ffff ffff 5254 0012 3456 0800 4500  ......RT..4V..E.
	0x0010:  002f 0000 0000 6411 3ea4 0a00 0219 0a00  ./....d.>.......
	0x0020:  0202 07d0 65f3 001b 0000 6120 6d65 7373  ....e.....a.mess
	0x0030:  6167 6520 6672 6f6d 2078 7636 21         age.from.xv6!
08:54:19.120289 IP 10.0.2.2.26099 > 10.0.2.25.2000: UDP, length 17
	0x0000:  5254 0012 3456 5255 0a00 0202 0800 4500  RT..4VRU......E.
	0x0010:  002d 0052 0000 4011 6254 0a00 0202 0a00  .-.R..@.bT......
	0x0020:  0219 65f3 07d0 0019 320c 7468 6973 2069  ..e.....2.this.i
	0x0030:  7320 7468 6520 686f 7374 2100            s.the.host!.
08:54:19.122101 IP 10.0.2.25.2000 > 10.0.2.2.26099: UDP, length 19
	0x0000:  ffff ffff ffff 5254 0012 3456 0800 4500  ......RT..4V..E.
	0x0010:  002f 0000 0000 6411 3ea4 0a00 0219 0a00  ./....d.>.......
	0x0020:  0202 07d0 65f3 001b 0000 6120 6d65 7373  ....e.....a.mess
	0x0030:  6167 6520 6672 6f6d 2078 7636 21         age.from.xv6!
08:54:19.122404 IP 10.0.2.2.26099 > 10.0.2.25.2000: UDP, length 17
	0x0000:  5254 0012 3456 5255 0a00 0202 0800 4500  RT..4VRU......E.
	0x0010:  002d 0053 0000 4011 6253 0a00 0202 0a00  .-.S..@.bS......
	0x0020:  0219 65f3 07d0 0019 320c 7468 6973 2069  ..e.....2.this.i
	0x0030:  7320 7468 6520 686f 7374 2100            s.the.host!.
08:54:19.125723 IP 10.0.2.25.2000 > 10.0.2.2.26099: UDP, length 19
	0x0000:  ffff ffff ffff 5254 0012 3456 0800 4500  ......RT..4V..E.
	0x0010:  002f 0000 0000 6411 3ea4 0a00 0219 0a00  ./....d.>.......
	0x0020:  0202 07d0 65f3 001b 0000 6120 6d65 7373  ....e.....a.mess
	0x0030:  6167 6520 6672 6f6d 2078 7636 21         age.from.xv6!
08:54:19.126058 IP 10.0.2.2.26099 > 10.0.2.25.2000: UDP, length 17
	0x0000:  5254 0012 3456 5255 0a00 0202 0800 4500  RT..4VRU......E.
	0x0010:  002d 0054 0000 4011 6252 0a00 0202 0a00  .-.T..@.bR......
	0x0020:  0219 65f3 07d0 0019 320c 7468 6973 2069  ..e.....2.this.i
	0x0030:  7320 7468 6520 686f 7374 2100            s.the.host!.
08:54:19.127926 IP 10.0.2.25.2000 > 10.0.2.2.26099: UDP, length 19
	0x0000:  ffff ffff ffff 5254 0012 3456 0800 4500  ......RT..4V..E.
	0x0010:  002f 0000 0000 6411 3ea4 0a00 0219 0a00  ./....d.>.......
	0x0020:  0202 07d0 65f3 001b 0000 6120 6d65 7373  ....e.....a.mess
	0x0030:  6167 6520 6672 6f6d 2078 7636 21         age.from.xv6!
08:54:19.128248 IP 10.0.2.2.26099 > 10.0.2.25.2000: UDP, length 17
	0x0000:  5254 0012 3456 5255 0a00 0202 0800 4500  RT..4VRU......E.
	0x0010:  002d 0055 0000 4011 6251 0a00 0202 0a00  .-.U..@.bQ......
	0x0020:  0219 65f3 07d0 0019 320c 7468 6973 2069  ..e.....2.this.i
	0x0030:  7320 7468 6520 686f 7374 2100            s.the.host!.
08:54:19.130097 IP 10.0.2.25.2000 > 10.0.2.2.26099: UDP, length 19
	0x0000:  ffff ffff ffff 5254 0012 3456 0800 4500  ......RT..4V..E.
	0x0010:  002f 0000 0000 6411 3ea4 0a00 0219 0a00  ./....d.>.......
	0x0020:  0202 07d0 65f3 001b 0000 6120 6d65 7373  ....e.....a.mess
	0x0030:  6167 6520 6672 6f6d 2078 7636 21         age.from.xv6!
08:54:19.130456 IP 10.0.2.2.26099 > 10.0.2.25.2000: UDP, length 17
	0x0000:  5254 0012 3456 5255 0a00 0202 0800 4500  RT..4VRU......E.
	0x0010:  002d 0056 0000 4011 6250 0a00 0202 0a00  .-.V..@.bP......
	0x0020:  0219 65f3 07d0 0019 320c 7468 6973 2069  ..e.....2.this.i
	0x0030:  7320 7468 6520 686f 7374 2100            s.the.host!.
08:54:19.132274 IP 10.0.2.25.2000 > 10.0.2.2.26099: UDP, length 19
	0x0000:  ffff ffff ffff 5254 0012 3456 0800 4500  ......RT..4V..E.
	0x0010:  002f 0000 0000 6411 3ea4 0a00 0219 0a00  ./....d.>.......
	0x0020:  0202 07d0 65f3 001b 0000 6120 6d65 7373  ....e.....a.mess
	0x0030:  6167 6520 6672 6f6d 2078 7636 21         age.from.xv6!
08:54:19.132589 IP 10.0.2.2.26099 > 10.0.2.25.2000: UDP, length 17
	0x0000:  5254 0012 3456 5255 0a00 0202 0800 4500  RT..4VRU......E.
	0x0010:  002d 0057 0000 4011 624f 0a00 0202 0a00  .-.W..@.bO......
	0x0020:  0219 65f3 07d0 0019 320c 7468 6973 2069  ..e.....2.this.i
	0x0030:  7320 7468 6520 686f 7374 2100            s.the.host!.
08:54:19.134435 IP 10.0.2.25.2000 > 10.0.2.2.26099: UDP, length 19
	0x0000:  ffff ffff ffff 5254 0012 3456 0800 4500  ......RT..4V..E.
	0x0010:  002f 0000 0000 6411 3ea4 0a00 0219 0a00  ./....d.>.......
	0x0020:  0202 07d0 65f3 001b 0000 6120 6d65 7373  ....e.....a.mess
	0x0030:  6167 6520 6672 6f6d 2078 7636 21         age.from.xv6!
08:54:19.134757 IP 10.0.2.2.26099 > 10.0.2.25.2000: UDP, length 17
	0x0000:  5254 0012 3456 5255 0a00 0202 0800 4500  RT..4VRU......E.
	0x0010:  002d 0058 0000 4011 624e 0a00 0202 0a00  .-.X..@.bN......
	0x0020:  0219 65f3 07d0 0019 320c 7468 6973 2069  ..e.....2.this.i
	0x0030:  7320 7468 6520 686f 7374 2100            s.the.host!.
08:54:19.136619 IP 10.0.2.25.2000 > 10.0.2.2.26099: UDP, length 19
	0x0000:  ffff ffff ffff 5254 0012 3456 0800 4500  ......RT..4V..E.
	0x0010:  002f 0000 0000 6411 3ea4 0a00 0219 0a00  ./....d.>.......
	0x0020:  0202 07d0 65f3 001b 0000 6120 6d65 7373  ....e.....a.mess
	0x0030:  6167 6520 6672 6f6d 2078 7636 21         age.from.xv6!
08:54:19.136933 IP 10.0.2.2.26099 > 10.0.2.25.2000: UDP, length 17
	0x0000:  5254 0012 3456 5255 0a00 0202 0800 4500  RT..4VRU......E.
	0x0010:  002d 0059 0000 4011 624d 0a00 0202 0a00  .-.Y..@.bM......
	0x0020:  0219 65f3 07d0 0019 320c 7468 6973 2069  ..e.....2.this.i
	0x0030:  7320 7468 6520 686f 7374 2100            s.the.host!.
08:54:19.138747 IP 10.0.2.25.2000 > 10.0.2.2.26099: UDP, length 19
	0x0000:  ffff ffff ffff 5254 0012 3456 0800 4500  ......RT..4V..E.
	0x0010:  002f 0000 0000 6411 3ea4 0a00 0219 0a00  ./....d.>.......
	0x0020:  0202 07d0 65f3 001b 0000 6120 6d65 7373  ....e.....a.mess
	0x0030:  6167 6520 6672 6f6d 2078 7636 21         age.from.xv6!
08:54:19.139040 IP 10.0.2.2.26099 > 10.0.2.25.2000: UDP, length 17
	0x0000:  5254 0012 3456 5255 0a00 0202 0800 4500  RT..4VRU......E.
	0x0010:  002d 005a 0000 4011 624c 0a00 0202 0a00  .-.Z..@.bL......
	0x0020:  0219 65f3 07d0 0019 320c 7468 6973 2069  ..e.....2.this.i
	0x0030:  7320 7468 6520 686f 7374 2100            s.the.host!.
08:54:19.141020 IP 10.0.2.25.2000 > 10.0.2.2.26099: UDP, length 19
	0x0000:  ffff ffff ffff 5254 0012 3456 0800 4500  ......RT..4V..E.
	0x0010:  002f 0000 0000 6411 3ea4 0a00 0219 0a00  ./....d.>.......
	0x0020:  0202 07d0 65f3 001b 0000 6120 6d65 7373  ....e.....a.mess
	0x0030:  6167 6520 6672 6f6d 2078 7636 21         age.from.xv6!
08:54:19.141328 IP 10.0.2.2.26099 > 10.0.2.25.2000: UDP, length 17
	0x0000:  5254 0012 3456 5255 0a00 0202 0800 4500  RT..4VRU......E.
	0x0010:  002d 005b 0000 4011 624b 0a00 0202 0a00  .-.[..@.bK......
	0x0020:  0219 65f3 07d0 0019 320c 7468 6973 2069  ..e.....2.this.i
	0x0030:  7320 7468 6520 686f 7374 2100            s.the.host!.
08:54:19.143150 IP 10.0.2.25.2000 > 10.0.2.2.26099: UDP, length 19
	0x0000:  ffff ffff ffff 5254 0012 3456 0800 4500  ......RT..4V..E.
	0x0010:  002f 0000 0000 6411 3ea4 0a00 0219 0a00  ./....d.>.......
	0x0020:  0202 07d0 65f3 001b 0000 6120 6d65 7373  ....e.....a.mess
	0x0030:  6167 6520 6672 6f6d 2078 7636 21         age.from.xv6!
08:54:19.143453 IP 10.0.2.2.26099 > 10.0.2.25.2000: UDP, length 17
	0x0000:  5254 0012 3456 5255 0a00 0202 0800 4500  RT..4VRU......E.
	0x0010:  002d 005c 0000 4011 624a 0a00 0202 0a00  .-.\..@.bJ......
	0x0020:  0219 65f3 07d0 0019 320c 7468 6973 2069  ..e.....2.this.i
	0x0030:  7320 7468 6520 686f 7374 2100            s.the.host!.
08:54:19.145250 IP 10.0.2.25.2000 > 10.0.2.2.26099: UDP, length 19
	0x0000:  ffff ffff ffff 5254 0012 3456 0800 4500  ......RT..4V..E.
	0x0010:  002f 0000 0000 6411 3ea4 0a00 0219 0a00  ./....d.>.......
	0x0020:  0202 07d0 65f3 001b 0000 6120 6d65 7373  ....e.....a.mess
	0x0030:  6167 6520 6672 6f6d 2078 7636 21         age.from.xv6!
08:54:19.145543 IP 10.0.2.2.26099 > 10.0.2.25.2000: UDP, length 17
	0x0000:  5254 0012 3456 5255 0a00 0202 0800 4500  RT..4VRU......E.
	0x0010:  002d 005d 0000 4011 6249 0a00 0202 0a00  .-.]..@.bI......
	0x0020:  0219 65f3 07d0 0019 320c 7468 6973 2069  ..e.....2.this.i
	0x0030:  7320 7468 6520 686f 7374 2100            s.the.host!.
08:54:19.147359 IP 10.0.2.25.2000 > 10.0.2.2.26099: UDP, length 19
	0x0000:  ffff ffff ffff 5254 0012 3456 0800 4500  ......RT..4V..E.
	0x0010:  002f 0000 0000 6411 3ea4 0a00 0219 0a00  ./....d.>.......
	0x0020:  0202 07d0 65f3 001b 0000 6120 6d65 7373  ....e.....a.mess
	0x0030:  6167 6520 6672 6f6d 2078 7636 21         age.from.xv6!
08:54:19.147653 IP 10.0.2.2.26099 > 10.0.2.25.2000: UDP, length 17
	0x0000:  5254 0012 3456 5255 0a00 0202 0800 4500  RT..4VRU......E.
	0x0010:  002d 005e 0000 4011 6248 0a00 0202 0a00  .-.^..@.bH......
	0x0020:  0219 65f3 07d0 0019 320c 7468 6973 2069  ..e.....2.this.i
	0x0030:  7320 7468 6520 686f 7374 2100            s.the.host!.
08:54:19.149467 IP 10.0.2.25.2000 > 10.0.2.2.26099: UDP, length 19
	0x0000:  ffff ffff ffff 5254 0012 3456 0800 4500  ......RT..4V..E.
	0x0010:  002f 0000 0000 6411 3ea4 0a00 0219 0a00  ./....d.>.......
	0x0020:  0202 07d0 65f3 001b 0000 6120 6d65 7373  ....e.....a.mess
	0x0030:  6167 6520 6672 6f6d 2078 7636 21         age.from.xv6!
08:54:19.149776 IP 10.0.2.2.26099 > 10.0.2.25.2000: UDP, length 17
	0x0000:  5254 0012 3456 5255 0a00 0202 0800 4500  RT..4VRU......E.
	0x0010:  002d 005f 0000 4011 6247 0a00 0202 0a00  .-._..@.bG......
	0x0020:  0219 65f3 07d0 0019 320c 7468 6973 2069  ..e.....2.this.i
	0x0030:  7320 7468 6520 686f 7374 2100            s.the.host!.
08:54:19.151792 IP 10.0.2.25.2000 > 10.0.2.2.26099: UDP, length 19
	0x0000:  ffff ffff ffff 5254 0012 3456 0800 4500  ......RT..4V..E.
	0x0010:  002f 0000 0000 6411 3ea4 0a00 0219 0a00  ./....d.>.......
	0x0020:  0202 07d0 65f3 001b 0000 6120 6d65 7373  ....e.....a.mess
	0x0030:  6167 6520 6672 6f6d 2078 7636 21         age.from.xv6!
08:54:19.152130 IP 10.0.2.2.26099 > 10.0.2.25.2000: UDP, length 17
	0x0000:  5254 0012 3456 5255 0a00 0202 0800 4500  RT..4VRU......E.
	0x0010:  002d 0060 0000 4011 6246 0a00 0202 0a00  .-.`..@.bF......
	0x0020:  0219 65f3 07d0 0019 320c 7468 6973 2069  ..e.....2.this.i
	0x0030:  7320 7468 6520 686f 7374 2100            s.the.host!.
08:54:19.153923 IP 10.0.2.25.2000 > 10.0.2.2.26099: UDP, length 19
	0x0000:  ffff ffff ffff 5254 0012 3456 0800 4500  ......RT..4V..E.
	0x0010:  002f 0000 0000 6411 3ea4 0a00 0219 0a00  ./....d.>.......
	0x0020:  0202 07d0 65f3 001b 0000 6120 6d65 7373  ....e.....a.mess
	0x0030:  6167 6520 6672 6f6d 2078 7636 21         age.from.xv6!
08:54:19.154226 IP 10.0.2.2.26099 > 10.0.2.25.2000: UDP, length 17
	0x0000:  5254 0012 3456 5255 0a00 0202 0800 4500  RT..4VRU......E.
	0x0010:  002d 0061 0000 4011 6245 0a00 0202 0a00  .-.a..@.bE......
	0x0020:  0219 65f3 07d0 0019 320c 7468 6973 2069  ..e.....2.this.i
	0x0030:  7320 7468 6520 686f 7374 2100            s.the.host!.
08:54:19.156039 IP 10.0.2.25.2000 > 10.0.2.2.26099: UDP, length 19
	0x0000:  ffff ffff ffff 5254 0012 3456 0800 4500  ......RT..4V..E.
	0x0010:  002f 0000 0000 6411 3ea4 0a00 0219 0a00  ./....d.>.......
	0x0020:  0202 07d0 65f3 001b 0000 6120 6d65 7373  ....e.....a.mess
	0x0030:  6167 6520 6672 6f6d 2078 7636 21         age.from.xv6!
08:54:19.156493 IP 10.0.2.2.26099 > 10.0.2.25.2000: UDP, length 17
	0x0000:  5254 0012 3456 5255 0a00 0202 0800 4500  RT..4VRU......E.
	0x0010:  002d 0062 0000 4011 6244 0a00 0202 0a00  .-.b..@.bD......
	0x0020:  0219 65f3 07d0 0019 320c 7468 6973 2069  ..e.....2.this.i
	0x0030:  7320 7468 6520 686f 7374 2100            s.the.host!.
08:54:19.158346 IP 10.0.2.25.2000 > 10.0.2.2.26099: UDP, length 19
	0x0000:  ffff ffff ffff 5254 0012 3456 0800 4500  ......RT..4V..E.
	0x0010:  002f 0000 0000 6411 3ea4 0a00 0219 0a00  ./....d.>.......
	0x0020:  0202 07d0 65f3 001b 0000 6120 6d65 7373  ....e.....a.mess
	0x0030:  6167 6520 6672 6f6d 2078 7636 21         age.from.xv6!
08:54:19.158628 IP 10.0.2.2.26099 > 10.0.2.25.2000: UDP, length 17
	0x0000:  5254 0012 3456 5255 0a00 0202 0800 4500  RT..4VRU......E.
	0x0010:  002d 0063 0000 4011 6243 0a00 0202 0a00  .-.c..@.bC......
	0x0020:  0219 65f3 07d0 0019 320c 7468 6973 2069  ..e.....2.this.i
	0x0030:  7320 7468 6520 686f 7374 2100            s.the.host!.
08:54:19.160446 IP 10.0.2.25.2000 > 10.0.2.2.26099: UDP, length 19
	0x0000:  ffff ffff ffff 5254 0012 3456 0800 4500  ......RT..4V..E.
	0x0010:  002f 0000 0000 6411 3ea4 0a00 0219 0a00  ./....d.>.......
	0x0020:  0202 07d0 65f3 001b 0000 6120 6d65 7373  ....e.....a.mess
	0x0030:  6167 6520 6672 6f6d 2078 7636 21         age.from.xv6!
08:54:19.160767 IP 10.0.2.2.26099 > 10.0.2.25.2000: UDP, length 17
	0x0000:  5254 0012 3456 5255 0a00 0202 0800 4500  RT..4VRU......E.
	0x0010:  002d 0064 0000 4011 6242 0a00 0202 0a00  .-.d..@.bB......
	0x0020:  0219 65f3 07d0 0019 320c 7468 6973 2069  ..e.....2.this.i
	0x0030:  7320 7468 6520 686f 7374 2100            s.the.host!.
08:54:19.207623 IP 10.0.2.25.2001 > 10.0.2.2.26099: UDP, length 19
	0x0000:  ffff ffff ffff 5254 0012 3456 0800 4500  ......RT..4V..E.
	0x0010:  002f 0000 0000 6411 3ea4 0a00 0219 0a00  ./....d.>.......
	0x0020:  0202 07d1 65f3 001b 0000 6120 6d65 7373  ....e.....a.mess
	0x0030:  6167 6520 6672 6f6d 2078 7636 21         age.from.xv6!
08:54:19.212136 IP 10.0.2.25.2002 > 10.0.2.2.26099: UDP, length 19
	0x0000:  ffff ffff ffff 5254 0012 3456 0800 4500  ......RT..4V..E.
	0x0010:  002f 0000 0000 6411 3ea4 0a00 0219 0a00  ./....d.>.......
	0x0020:  0202 07d2 65f3 001b 0000 6120 6d65 7373  ....e.....a.mess
	0x0030:  6167 6520 6672 6f6d 2078 7636 21         age.from.xv6!
08:54:19.214167 IP 10.0.2.25.2003 > 10.0.2.2.26099: UDP, length 19
	0x0000:  ffff ffff ffff 5254 0012 3456 0800 4500  ......RT..4V..E.
	0x0010:  002f 0000 0000 6411 3ea4 0a00 0219 0a00  ./....d.>.......
	0x0020:  0202 07d3 65f3 001b 0000 6120 6d65 7373  ....e.....a.mess
	0x0030:  6167 6520 6672 6f6d 2078 7636 21         age.from.xv6!
08:54:19.220959 IP 10.0.2.25.2004 > 10.0.2.2.26099: UDP, length 19
	0x0000:  ffff ffff ffff 5254 0012 3456 0800 4500  ......RT..4V..E.
	0x0010:  002f 0000 0000 6411 3ea4 0a00 0219 0a00  ./....d.>.......
	0x0020:  0202 07d4 65f3 001b 0000 6120 6d65 7373  ....e.....a.mess
	0x0030:  6167 6520 6672 6f6d 2078 7636 21         age.from.xv6!
08:54:19.222841 IP 10.0.2.25.2005 > 10.0.2.2.26099: UDP, length 19
	0x0000:  ffff ffff ffff 5254 0012 3456 0800 4500  ......RT..4V..E.
	0x0010:  002f 0000 0000 6411 3ea4 0a00 0219 0a00  ./....d.>.......
	0x0020:  0202 07d5 65f3 001b 0000 6120 6d65 7373  ....e.....a.mess
	0x0030:  6167 6520 6672 6f6d 2078 7636 21         age.from.xv6!
08:54:19.230590 IP 10.0.2.25.2007 > 10.0.2.2.26099: UDP, length 19
	0x0000:  ffff ffff ffff 5254 0012 3456 0800 4500  ......RT..4V..E.
	0x0010:  002f 0000 0000 6411 3ea4 0a00 0219 0a00  ./....d.>.......
	0x0020:  0202 07d7 65f3 001b 0000 6120 6d65 7373  ....e.....a.mess
	0x0030:  6167 6520 6672 6f6d 2078 7636 21         age.from.xv6!
08:54:19.232640 IP 10.0.2.25.2006 > 10.0.2.2.26099: UDP, length 19
	0x0000:  ffff ffff ffff 5254 0012 3456 0800 4500  ......RT..4V..E.
	0x0010:  002f 0000 0000 6411 3ea4 0a00 0219 0a00  ./....d.>.......
	0x0020:  0202 07d6 65f3 001b 0000 6120 6d65 7373  ....e.....a.mess
	0x0030:  6167 6520 6672 6f6d 2078 7636 21         age.from.xv6!
08:54:19.236266 IP 10.0.2.25.2008 > 10.0.2.2.26099: UDP, length 19
	0x0000:  ffff ffff ffff 5254 0012 3456 0800 4500  ......RT..4V..E.
	0x0010:  002f 0000 0000 6411 3ea4 0a00 0219 0a00  ./....d.>.......
	0x0020:  0202 07d8 65f3 001b 0000 6120 6d65 7373  ....e.....a.mess
	0x0030:  6167 6520 6672 6f6d 2078 7636 21         age.from.xv6!
08:54:19.238607 IP 10.0.2.25.2009 > 10.0.2.2.26099: UDP, length 19
	0x0000:  ffff ffff ffff 5254 0012 3456 0800 4500  ......RT..4V..E.
	0x0010:  002f 0000 0000 6411 3ea4 0a00 0219 0a00  ./....d.>.......
	0x0020:  0202 07d9 65f3 001b 0000 6120 6d65 7373  ....e.....a.mess
	0x0030:  6167 6520 6672 6f6d 2078 7636 21         age.from.xv6!
08:54:19.244785 IP 10.0.2.25.2010 > 10.0.2.2.26099: UDP, length 19
	0x0000:  ffff ffff ffff 5254 0012 3456 0800 4500  ......RT..4V..E.
	0x0010:  002f 0000 0000 6411 3ea4 0a00 0219 0a00  ./....d.>.......
	0x0020:  0202 07da 65f3 001b 0000 6120 6d65 7373  ....e.....a.mess
	0x0030:  6167 6520 6672 6f6d 2078 7636 21         age.from.xv6!
08:54:19.301985 IP 10.0.2.2.26099 > 10.0.2.25.2010: UDP, length 17
	0x0000:  5254 0012 3456 5255 0a00 0202 0800 4500  RT..4VRU......E.
	0x0010:  002d 0065 0000 4011 6241 0a00 0202 0a00  .-.e..@.bA......
	0x0020:  0219 65f3 07da 0019 3202 7468 6973 2069  ..e.....2.this.i
	0x0030:  7320 7468 6520 686f 7374 2100            s.the.host!.
08:54:19.302109 IP 10.0.2.2.26099 > 10.0.2.25.2009: UDP, length 17
	0x0000:  5254 0012 3456 5255 0a00 0202 0800 4500  RT..4VRU......E.
	0x0010:  002d 0066 0000 4011 6240 0a00 0202 0a00  .-.f..@.b@......
	0x0020:  0219 65f3 07d9 0019 3203 7468 6973 2069  ..e.....2.this.i
	0x0030:  7320 7468 6520 686f 7374 2100            s.the.host!.
08:54:19.302134 IP 10.0.2.2.26099 > 10.0.2.25.2008: UDP, length 17
	0x0000:  5254 0012 3456 5255 0a00 0202 0800 4500  RT..4VRU......E.
	0x0010:  002d 0067 0000 4011 623f 0a00 0202 0a00  .-.g..@.b?......
	0x0020:  0219 65f3 07d8 0019 3204 7468 6973 2069  ..e.....2.this.i
	0x0030:  7320 7468 6520 686f 7374 2100            s.the.host!.
08:54:19.302156 IP 10.0.2.2.26099 > 10.0.2.25.2006: UDP, length 17
	0x0000:  5254 0012 3456 5255 0a00 0202 0800 4500  RT..4VRU......E.
	0x0010:  002d 0068 0000 4011 623e 0a00 0202 0a00  .-.h..@.b>......
	0x0020:  0219 65f3 07d6 0019 3206 7468 6973 2069  ..e.....2.this.i
	0x0030:  7320 7468 6520 686f 7374 2100            s.the.host!.
08:54:19.302178 IP 10.0.2.2.26099 > 10.0.2.25.2007: UDP, length 17
	0x0000:  5254 0012 3456 5255 0a00 0202 0800 4500  RT..4VRU......E.
	0x0010:  002d 0069 0000 4011 623d 0a00 0202 0a00  .-.i..@.b=......
	0x0020:  0219 65f3 07d7 0019 3205 7468 6973 2069  ..e.....2.this.i
	0x0030:  7320 7468 6520 686f 7374 2100            s.the.host!.
08:54:19.302195 IP 10.0.2.2.26099 > 10.0.2.25.2005: UDP, length 17
	0x0000:  5254 0012 3456 5255 0a00 0202 0800 4500  RT..4VRU......E.
	0x0010:  002d 006a 0000 4011 623c 0a00 0202 0a00  .-.j..@.b<......
	0x0020:  0219 65f3 07d5 0019 3207 7468 6973 2069  ..e.....2.this.i
	0x0030:  7320 7468 6520 686f 7374 2100            s.the.host!.
08:54:19.302213 IP 10.0.2.2.26099 > 10.0.2.25.2004: UDP, length 17
	0x0000:  5254 0012 3456 5255 0a00 0202 0800 4500  RT..4VRU......E.
	0x0010:  002d 006b 0000 4011 623b 0a00 0202 0a00  .-.k..@.b;......
	0x0020:  0219 65f3 07d4 0019 3208 7468 6973 2069  ..e.....2.this.i
	0x0030:  7320 7468 6520 686f 7374 2100            s.the.host!.
08:54:19.302234 IP 10.0.2.2.26099 > 10.0.2.25.2003: UDP, length 17
	0x0000:  5254 0012 3456 5255 0a00 0202 0800 4500  RT..4VRU......E.
	0x0010:  002d 006c 0000 4011 623a 0a00 0202 0a00  .-.l..@.b:......
	0x0020:  0219 65f3 07d3 0019 3209 7468 6973 2069  ..e.....2.this.i
	0x0030:  7320 7468 6520 686f 7374 2100            s.the.host!.
08:54:19.302256 IP 10.0.2.2.26099 > 10.0.2.25.2002: UDP, length 17
	0x0000:  5254 0012 3456 5255 0a00 0202 0800 4500  RT..4VRU......E.
	0x0010:  002d 006d 0000 4011 6239 0a00 0202 0a00  .-.m..@.b9......
	0x0020:  0219 65f3 07d2 0019 320a 7468 6973 2069  ..e.....2.this.i
	0x0030:  7320 7468 6520 686f 7374 2100            s.the.host!.
08:54:19.302274 IP 10.0.2.2.26099 > 10.0.2.25.2001: UDP, length 17
	0x0000:  5254 0012 3456 5255 0a00 0202 0800 4500  RT..4VRU......E.
	0x0010:  002d 006e 0000 4011 6238 0a00 0202 0a00  .-.n..@.b8......
	0x0020:  0219 65f3 07d1 0019 320b 7468 6973 2069  ..e.....2.this.i
	0x0030:  7320 7468 6520 686f 7374 2100            s.the.host!.
08:54:19.367451 IP 10.0.2.25.10000 > 8.8.8.8.53: 6828+ A? pdos.csail.mit.edu. (36)
	0x0000:  ffff ffff ffff 5254 0012 3456 0800 4500  ......RT..4V..E.
	0x0010:  0040 0000 0000 6411 3a85 0a00 0219 0808  .@....d.:.......
	0x0020:  0808 2710 0035 002c 0000 1aac 0100 0001  ..'..5.,........
	0x0030:  0000 0000 0000 0470 646f 7305 6373 6169  .......pdos.csai
	0x0040:  6c03 6d69 7403 6564 7500 0001 0001       l.mit.edu.....
08:54:19.446904 IP 8.8.8.8.53 > 10.0.2.25.10000: 6828 1/0/0 A 128.52.129.126 (52)
	0x0000:  5254 0012 3456 5255 0a00 0202 0800 4500  RT..4VRU......E.
	0x0010:  0050 006f 0000 4011 5e06 0808 0808 0a00  .P.o..@.^.......
	0x0020:  0219 0035 2710 003c 90cb 1aac 8180 0001  ...5'..<........
	0x0030:  0001 0000 0000 0470 646f 7305 6373 6169  .......pdos.csai
	0x0040:  6c03 6d69 7403 6564 7500 0001 0001 c00c  l.mit.edu.......
	0x0050:  0001 0001 0000 04b0 0004 8034 817e       ...........4.~
09:03:15.582156 IP6 fe80::2 > ff02::1: ICMP6, router advertisement, length 56
	0x0000:  3333 0000 0001 5256 0000 0002 86dd 6000  33....RV......`.
	0x0010:  0000 0038 3aff fe80 0000 0000 0000 0000  ...8:...........
	0x0020:  0000 0000 0002 ff02 0000 0000 0000 0000  ................
	0x0030:  0000 0000 0001 8600 155e 4000 0708 0000  .........^@.....
	0x0040:  0000 0000 0000 0101 5256 0000 0002 0304  ........RV......
	0x0050:  40c0 0001 5180 0000 3840 0000 0000 fec0  @...Q...8@......
	0x0060:  0000 0000 0000 0000 0000 0000 0000       ..............
09:12:06.581367 IP6 fe80::2 > ff02::1: ICMP6, router advertisement, length 56
	0x0000:  3333 0000 0001 5256 0000 0002 86dd 6000  33....RV......`.
	0x0010:  0000 0038 3aff fe80 0000 0000 0000 0000  ...8:...........
	0x0020:  0000 0000 0002 ff02 0000 0000 0000 0000  ................
	0x0030:  0000 0000 0001 8600 155e 4000 0708 0000  .........^@.....
	0x0040:  0000 0000 0000 0101 5256 0000 0002 0304  ........RV......
	0x0050:  40c0 0001 5180 0000 3840 0000 0000 fec0  @...Q...8@......
	0x0060:  0000 0000 0000 0000 0000 0000 0000       ..............
09:17:14.508861 IP6 fe80::2 > ff02::1: ICMP6, router advertisement, length 56
	0x0000:  3333 0000 0001 5256 0000 0002 86dd 6000  33....RV......`.
	0x0010:  0000 0038 3aff fe80 0000 0000 0000 0000  ...8:...........
	0x0020:  0000 0000 0002 ff02 0000 0000 0000 0000  ................
	0x0030:  0000 0000 0001 8600 155e 4000 0708 0000  .........^@.....
	0x0040:  0000 0000 0000 0101 5256 0000 0002 0304  ........RV......
	0x0050:  40c0 0001 5180 0000 3840 0000 0000 fec0  @...Q...8@......
	0x0060:  0000 0000 0000 0000 0000 0000 0000       ..............
09:22:54.737961 IP6 fe80::2 > ff02::1: ICMP6, router advertisement, length 56
	0x0000:  3333 0000 0001 5256 0000 0002 86dd 6000  33....RV......`.
	0x0010:  0000 0038 3aff fe80 0000 0000 0000 0000  ...8:...........
	0x0020:  0000 0000 0002 ff02 0000 0000 0000 0000  ................
	0x0030:  0000 0000 0001 8600 155e 4000 0708 0000  .........^@.....
	0x0040:  0000 0000 0000 0101 5256 0000 0002 0304  ........RV......
	0x0050:  40c0 0001 5180 0000 3840 0000 0000 fec0  @...Q...8@......
	0x0060:  0000 0000 0000 0000 0000 0000 0000       ..............
09:31:17.052120 IP6 fe80::2 > ff02::1: ICMP6, router advertisement, length 56
	0x0000:  3333 0000 0001 5256 0000 0002 86dd 6000  33....RV......`.
	0x0010:  0000 0038 3aff fe80 0000 0000 0000 0000  ...8:...........
	0x0020:  0000 0000 0002 ff02 0000 0000 0000 0000  ................
	0x0030:  0000 0000 0001 8600 155e 4000 0708 0000  .........^@.....
	0x0040:  0000 0000 0000 0101 5256 0000 0002 0304  ........RV......
	0x0050:  40c0 0001 5180 0000 3840 0000 0000 fec0  @...Q...8@......
	0x0060:  0000 0000 0000 0000 0000 0000 0000       ..............
